{"contracts/mocks/MockArbitrageExecutor.sol":{"MockArbitrageExecutor":{"abi":[{"inputs":[{"internalType":"address","name":"token","type":"address"}],"name":"SafeERC20FailedOperation","type":"error"},{"anonymous":false,"inputs":[{"indexed":false,"internalType":"address","name":"token","type":"address"},{"indexed":false,"internalType":"uint256","name":"amount","type":"uint256"},{"indexed":false,"internalType":"uint256","name":"returned","type":"uint256"}],"name":"ArbitrageExecuted","type":"event"},{"inputs":[{"internalType":"address","name":"token","type":"address"},{"internalType":"uint256","name":"amount","type":"uint256"},{"internalType":"uint256","name":"requiredReturn","type":"uint256"}],"name":"executeArbitrage","outputs":[{"internalType":"bool","name":"","type":"bool"}],"stateMutability":"nonpayable","type":"function"},{"inputs":[],"name":"profitAmount","outputs":[{"internalType":"uint256","name":"","type":"uint256"}],"stateMutability":"view","type":"function"},{"inputs":[{"internalType":"uint256","name":"_profitAmount","type":"uint256"}],"name":"setProfitAmount","outputs":[],"stateMutability":"nonpayable","type":"function"},{"inputs":[{"internalType":"bool","name":"_shouldReturnEnough","type":"bool"}],"name":"setShouldReturnEnough","outputs":[],"stateMutability":"nonpayable","type":"function"},{"inputs":[{"internalType":"bool","name":"_shouldSucceed","type":"bool"}],"name":"setShouldSucceed","outputs":[],"stateMutability":"nonpayable","type":"function"},{"inputs":[],"name":"shouldReturnEnough","outputs":[{"internalType":"bool","name":"","type":"bool"}],"stateMutability":"view","type":"function"},{"inputs":[],"name":"shouldSucceed","outputs":[{"internalType":"bool","name":"","type":"bool"}],"stateMutability":"view","type":"function"},{"stateMutability":"payable","type":"receive"}],"evm":{"bytecode":{"linkReferences":{},"object":"60806040526000805461ffff191661010117815560015534801561002257600080fd5b50610414806100326000396000f3fe6080604052600436106100735760003560e01c80635ff972cc1161004e5780635ff972cc1461010a57806397bc36001461012e5780639e31ddb61461014e578063e77deb2c1461017c57600080fd5b806290a47c1461007f5780633d890437146100b35780635767a74f146100ea57600080fd5b3661007a57005b600080fd5b34801561008b57600080fd5b5060005461009e90610100900460ff1681565b60405190151581526020015b60405180910390f35b3480156100bf57600080fd5b506100e86100ce366004610319565b600080549115156101000261ff0019909216919091179055565b005b3480156100f657600080fd5b5061009e61010536600461033b565b610196565b34801561011657600080fd5b5061012060015481565b6040519081526020016100aa565b34801561013a57600080fd5b506100e861014936600461037c565b600155565b34801561015a57600080fd5b506100e8610169366004610319565b6000805460ff1916911515919091179055565b34801561018857600080fd5b5060005461009e9060ff1681565b6000805460ff166101a957506000610240565b60008054610100900460ff16156101ce576001546101c79084610395565b90506101dc565b6101d96002846103bc565b90505b6101f06001600160a01b0386163383610247565b604080516001600160a01b0387168152602081018690529081018290527f147eadb5569d263d5aba3ca005001b85a1651d8da1204f22327ecdac7459e2ea9060600160405180910390a160019150505b9392505050565b604080516001600160a01b038416602482015260448082018490528251808303909101815260649091019091526020810180516001600160e01b031663a9059cbb60e01b17905261029990849061029e565b505050565b600080602060008451602086016000885af1806102c1576040513d6000823e3d81fd5b50506000513d915081156102d95780600114156102e6565b6001600160a01b0384163b155b1561031357604051635274afe760e01b81526001600160a01b038516600482015260240160405180910390fd5b50505050565b60006020828403121561032b57600080fd5b8135801515811461024057600080fd5b60008060006060848603121561035057600080fd5b83356001600160a01b038116811461036757600080fd5b95602085013595506040909401359392505050565b60006020828403121561038e57600080fd5b5035919050565b808201808211156103b657634e487b7160e01b600052601160045260246000fd5b92915050565b6000826103d957634e487b7160e01b600052601260045260246000fd5b50049056fea26469706673582212200cf49d970a252b61ee5f7309f7a6f455385d9600bc58b1dcfe1ced4155a09a4c64736f6c63430008140033","opcodes":"PUSH1 0x80 PUSH1 0x40 MSTORE PUSH1 0x0 DUP1 SLOAD PUSH2 0xFFFF NOT AND PUSH2 0x101 OR DUP2 SSTORE PUSH1 0x1 SSTORE CALLVALUE DUP1 ISZERO PUSH2 0x22 JUMPI PUSH1 0x0 DUP1 REVERT JUMPDEST POP PUSH2 0x414 DUP1 PUSH2 0x32 PUSH1 0x0 CODECOPY PUSH1 0x0 RETURN INVALID PUSH1 0x80 PUSH1 0x40 MSTORE PUSH1 0x4 CALLDATASIZE LT PUSH2 0x73 JUMPI PUSH1 0x0 CALLDATALOAD PUSH1 0xE0 SHR DUP1 PUSH4 0x5FF972CC GT PUSH2 0x4E JUMPI DUP1 PUSH4 0x5FF972CC EQ PUSH2 0x10A JUMPI DUP1 PUSH4 0x97BC3600 EQ PUSH2 0x12E JUMPI DUP1 PUSH4 0x9E31DDB6 EQ PUSH2 0x14E JUMPI DUP1 PUSH4 0xE77DEB2C EQ PUSH2 0x17C JUMPI PUSH1 0x0 DUP1 REVERT JUMPDEST DUP1 PUSH3 0x90A47C EQ PUSH2 0x7F JUMPI DUP1 PUSH4 0x3D890437 EQ PUSH2 0xB3 JUMPI DUP1 PUSH4 0x5767A74F EQ PUSH2 0xEA JUMPI PUSH1 0x0 DUP1 REVERT JUMPDEST CALLDATASIZE PUSH2 0x7A JUMPI STOP JUMPDEST PUSH1 0x0 DUP1 REVERT JUMPDEST CALLVALUE DUP1 ISZERO PUSH2 0x8B JUMPI PUSH1 0x0 DUP1 REVERT JUMPDEST POP PUSH1 0x0 SLOAD PUSH2 0x9E SWAP1 PUSH2 0x100 SWAP1 DIV PUSH1 0xFF AND DUP2 JUMP JUMPDEST PUSH1 0x40 MLOAD SWAP1 ISZERO ISZERO DUP2 MSTORE PUSH1 0x20 ADD JUMPDEST PUSH1 0x40 MLOAD DUP1 SWAP2 SUB SWAP1 RETURN JUMPDEST CALLVALUE DUP1 ISZERO PUSH2 0xBF JUMPI PUSH1 0x0 DUP1 REVERT JUMPDEST POP PUSH2 0xE8 PUSH2 0xCE CALLDATASIZE PUSH1 0x4 PUSH2 0x319 JUMP JUMPDEST PUSH1 0x0 DUP1 SLOAD SWAP2 ISZERO ISZERO PUSH2 0x100 MUL PUSH2 0xFF00 NOT SWAP1 SWAP3 AND SWAP2 SWAP1 SWAP2 OR SWAP1 SSTORE JUMP JUMPDEST STOP JUMPDEST CALLVALUE DUP1 ISZERO PUSH2 0xF6 JUMPI PUSH1 0x0 DUP1 REVERT JUMPDEST POP PUSH2 0x9E PUSH2 0x105 CALLDATASIZE PUSH1 0x4 PUSH2 0x33B JUMP JUMPDEST PUSH2 0x196 JUMP JUMPDEST CALLVALUE DUP1 ISZERO PUSH2 0x116 JUMPI PUSH1 0x0 DUP1 REVERT JUMPDEST POP PUSH2 0x120 PUSH1 0x1 SLOAD DUP2 JUMP JUMPDEST PUSH1 0x40 MLOAD SWAP1 DUP2 MSTORE PUSH1 0x20 ADD PUSH2 0xAA JUMP JUMPDEST CALLVALUE DUP1 ISZERO PUSH2 0x13A JUMPI PUSH1 0x0 DUP1 REVERT JUMPDEST POP PUSH2 0xE8 PUSH2 0x149 CALLDATASIZE PUSH1 0x4 PUSH2 0x37C JUMP JUMPDEST PUSH1 0x1 SSTORE JUMP JUMPDEST CALLVALUE DUP1 ISZERO PUSH2 0x15A JUMPI PUSH1 0x0 DUP1 REVERT JUMPDEST POP PUSH2 0xE8 PUSH2 0x169 CALLDATASIZE PUSH1 0x4 PUSH2 0x319 JUMP JUMPDEST PUSH1 0x0 DUP1 SLOAD PUSH1 0xFF NOT AND SWAP2 ISZERO ISZERO SWAP2 SWAP1 SWAP2 OR SWAP1 SSTORE JUMP JUMPDEST CALLVALUE DUP1 ISZERO PUSH2 0x188 JUMPI PUSH1 0x0 DUP1 REVERT JUMPDEST POP PUSH1 0x0 SLOAD PUSH2 0x9E SWAP1 PUSH1 0xFF AND DUP2 JUMP JUMPDEST PUSH1 0x0 DUP1 SLOAD PUSH1 0xFF AND PUSH2 0x1A9 JUMPI POP PUSH1 0x0 PUSH2 0x240 JUMP JUMPDEST PUSH1 0x0 DUP1 SLOAD PUSH2 0x100 SWAP1 DIV PUSH1 0xFF AND ISZERO PUSH2 0x1CE JUMPI PUSH1 0x1 SLOAD PUSH2 0x1C7 SWAP1 DUP5 PUSH2 0x395 JUMP JUMPDEST SWAP1 POP PUSH2 0x1DC JUMP JUMPDEST PUSH2 0x1D9 PUSH1 0x2 DUP5 PUSH2 0x3BC JUMP JUMPDEST SWAP1 POP JUMPDEST PUSH2 0x1F0 PUSH1 0x1 PUSH1 0x1 PUSH1 0xA0 SHL SUB DUP7 AND CALLER DUP4 PUSH2 0x247 JUMP JUMPDEST PUSH1 0x40 DUP1 MLOAD PUSH1 0x1 PUSH1 0x1 PUSH1 0xA0 SHL SUB DUP8 AND DUP2 MSTORE PUSH1 0x20 DUP2 ADD DUP7 SWAP1 MSTORE SWAP1 DUP2 ADD DUP3 SWAP1 MSTORE PUSH32 0x147EADB5569D263D5ABA3CA005001B85A1651D8DA1204F22327ECDAC7459E2EA SWAP1 PUSH1 0x60 ADD PUSH1 0x40 MLOAD DUP1 SWAP2 SUB SWAP1 LOG1 PUSH1 0x1 SWAP2 POP POP JUMPDEST SWAP4 SWAP3 POP POP POP JUMP JUMPDEST PUSH1 0x40 DUP1 MLOAD PUSH1 0x1 PUSH1 0x1 PUSH1 0xA0 SHL SUB DUP5 AND PUSH1 0x24 DUP3 ADD MSTORE PUSH1 0x44 DUP1 DUP3 ADD DUP5 SWAP1 MSTORE DUP3 MLOAD DUP1 DUP4 SUB SWAP1 SWAP2 ADD DUP2 MSTORE PUSH1 0x64 SWAP1 SWAP2 ADD SWAP1 SWAP2 MSTORE PUSH1 0x20 DUP2 ADD DUP1 MLOAD PUSH1 0x1 PUSH1 0x1 PUSH1 0xE0 SHL SUB AND PUSH4 0xA9059CBB PUSH1 0xE0 SHL OR SWAP1 MSTORE PUSH2 0x299 SWAP1 DUP5 SWAP1 PUSH2 0x29E JUMP JUMPDEST POP POP POP JUMP JUMPDEST PUSH1 0x0 DUP1 PUSH1 0x20 PUSH1 0x0 DUP5 MLOAD PUSH1 0x20 DUP7 ADD PUSH1 0x0 DUP9 GAS CALL DUP1 PUSH2 0x2C1 JUMPI PUSH1 0x40 MLOAD RETURNDATASIZE PUSH1 0x0 DUP3 RETURNDATACOPY RETURNDATASIZE DUP2 REVERT JUMPDEST POP POP PUSH1 0x0 MLOAD RETURNDATASIZE SWAP2 POP DUP2 ISZERO PUSH2 0x2D9 JUMPI DUP1 PUSH1 0x1 EQ ISZERO PUSH2 0x2E6 JUMP JUMPDEST PUSH1 0x1 PUSH1 0x1 PUSH1 0xA0 SHL SUB DUP5 AND EXTCODESIZE ISZERO JUMPDEST ISZERO PUSH2 0x313 JUMPI PUSH1 0x40 MLOAD PUSH4 0x5274AFE7 PUSH1 0xE0 SHL DUP2 MSTORE PUSH1 0x1 PUSH1 0x1 PUSH1 0xA0 SHL SUB DUP6 AND PUSH1 0x4 DUP3 ADD MSTORE PUSH1 0x24 ADD PUSH1 0x40 MLOAD DUP1 SWAP2 SUB SWAP1 REVERT JUMPDEST POP POP POP POP JUMP JUMPDEST PUSH1 0x0 PUSH1 0x20 DUP3 DUP5 SUB SLT ISZERO PUSH2 0x32B JUMPI PUSH1 0x0 DUP1 REVERT JUMPDEST DUP2 CALLDATALOAD DUP1 ISZERO ISZERO DUP2 EQ PUSH2 0x240 JUMPI PUSH1 0x0 DUP1 REVERT JUMPDEST PUSH1 0x0 DUP1 PUSH1 0x0 PUSH1 0x60 DUP5 DUP7 SUB SLT ISZERO PUSH2 0x350 JUMPI PUSH1 0x0 DUP1 REVERT JUMPDEST DUP4 CALLDATALOAD PUSH1 0x1 PUSH1 0x1 PUSH1 0xA0 SHL SUB DUP2 AND DUP2 EQ PUSH2 0x367 JUMPI PUSH1 0x0 DUP1 REVERT JUMPDEST SWAP6 PUSH1 0x20 DUP6 ADD CALLDATALOAD SWAP6 POP PUSH1 0x40 SWAP1 SWAP5 ADD CALLDATALOAD SWAP4 SWAP3 POP POP POP JUMP JUMPDEST PUSH1 0x0 PUSH1 0x20 DUP3 DUP5 SUB SLT ISZERO PUSH2 0x38E JUMPI PUSH1 0x0 DUP1 REVERT JUMPDEST POP CALLDATALOAD SWAP2 SWAP1 POP JUMP JUMPDEST DUP1 DUP3 ADD DUP1 DUP3 GT ISZERO PUSH2 0x3B6 JUMPI PUSH4 0x4E487B71 PUSH1 0xE0 SHL PUSH1 0x0 MSTORE PUSH1 0x11 PUSH1 0x4 MSTORE PUSH1 0x24 PUSH1 0x0 REVERT JUMPDEST SWAP3 SWAP2 POP POP JUMP JUMPDEST PUSH1 0x0 DUP3 PUSH2 0x3D9 JUMPI PUSH4 0x4E487B71 PUSH1 0xE0 SHL PUSH1 0x0 MSTORE PUSH1 0x12 PUSH1 0x4 MSTORE PUSH1 0x24 PUSH1 0x0 REVERT JUMPDEST POP DIV SWAP1 JUMP INVALID LOG2 PUSH5 0x6970667358 0x22 SLT KECCAK256 0xC DELEGATECALL SWAP14 SWAP8 EXP 0x25 0x2B PUSH2 0xEE5F PUSH20 0x9F7A6F455385D9600BC58B1DCFE1CED4155A09A 0x4C PUSH5 0x736F6C6343 STOP ADDMOD EQ STOP CALLER "},"methodIdentifiers":{"executeArbitrage(address,uint256,uint256)":"5767a74f","profitAmount()":"5ff972cc","setProfitAmount(uint256)":"97bc3600","setShouldReturnEnough(bool)":"3d890437","setShouldSucceed(bool)":"9e31ddb6","shouldReturnEnough()":"0090a47c","shouldSucceed()":"e77deb2c"}}}}}