{"contracts/examples/ExampleDEXArbitrage.sol":{"ExampleDEXArbitrage":{"abi":[{"inputs":[{"internalType":"address","name":"_dexA","type":"address"},{"internalType":"address","name":"_dexB","type":"address"}],"stateMutability":"nonpayable","type":"constructor"},{"inputs":[{"internalType":"address","name":"token","type":"address"}],"name":"SafeERC20FailedOperation","type":"error"},{"anonymous":false,"inputs":[{"indexed":false,"internalType":"address","name":"token","type":"address"},{"indexed":false,"internalType":"uint256","name":"amountIn","type":"uint256"},{"indexed":false,"internalType":"uint256","name":"profit","type":"uint256"}],"name":"ArbitrageAttempted","type":"event"},{"anonymous":false,"inputs":[{"indexed":false,"internalType":"address","name":"dexA","type":"address"},{"indexed":false,"internalType":"address","name":"dexB","type":"address"}],"name":"DEXAddressesUpdated","type":"event"},{"inputs":[],"name":"dexA","outputs":[{"internalType":"address","name":"","type":"address"}],"stateMutability":"view","type":"function"},{"inputs":[],"name":"dexB","outputs":[{"internalType":"address","name":"","type":"address"}],"stateMutability":"view","type":"function"},{"inputs":[{"internalType":"address","name":"token","type":"address"}],"name":"emergencyWithdraw","outputs":[],"stateMutability":"nonpayable","type":"function"},{"inputs":[{"internalType":"address","name":"token","type":"address"},{"internalType":"uint256","name":"amount","type":"uint256"},{"internalType":"uint256","name":"requiredReturn","type":"uint256"}],"name":"executeArbitrage","outputs":[{"internalType":"bool","name":"success","type":"bool"}],"stateMutability":"nonpayable","type":"function"},{"inputs":[],"name":"owner","outputs":[{"internalType":"address","name":"","type":"address"}],"stateMutability":"view","type":"function"},{"inputs":[{"internalType":"address","name":"_dexA","type":"address"},{"internalType":"address","name":"_dexB","type":"address"}],"name":"updateDEXAddresses","outputs":[],"stateMutability":"nonpayable","type":"function"},{"inputs":[{"internalType":"address","name":"token","type":"address"},{"internalType":"uint256","name":"amount","type":"uint256"}],"name":"withdrawProfits","outputs":[],"stateMutability":"nonpayable","type":"function"},{"stateMutability":"payable","type":"receive"}],"evm":{"bytecode":{"linkReferences":{},"object":"60a060405234801561001057600080fd5b5060405161094b38038061094b83398101604081905261002f91610080565b33608052600080546001600160a01b039384166001600160a01b031991821617909155600180549290931691161790556100b3565b80516001600160a01b038116811461007b57600080fd5b919050565b6000806040838503121561009357600080fd5b61009c83610064565b91506100aa60208401610064565b90509250929050565b60805161085a6100f160003960008181610121015281816103f0015281816104af015281816104e30152818161052f015261055f015261085a6000f3fe6080604052600436106100745760003560e01c80638da5cb5b1161004e5780638da5cb5b1461010f578063aafc965114610143578063c0e5dada14610163578063fa29e6b11461018357600080fd5b80634c02a7a7146100805780635767a74f146100bd5780636ff1c9bc146100ed57600080fd5b3661007b57005b600080fd5b34801561008c57600080fd5b506000546100a0906001600160a01b031681565b6040516001600160a01b0390911681526020015b60405180910390f35b3480156100c957600080fd5b506100dd6100d83660046106f4565b6101a3565b60405190151581526020016100b4565b3480156100f957600080fd5b5061010d610108366004610727565b6103e5565b005b34801561011b57600080fd5b506100a07f000000000000000000000000000000000000000000000000000000000000000081565b34801561014f57600080fd5b5061010d61015e366004610749565b6104d8565b34801561016f57600080fd5b5061010d61017e366004610773565b610554565b34801561018f57600080fd5b506001546100a0906001600160a01b031681565b6040516370a0823160e01b815230600482015260009081906001600160a01b038616906370a0823190602401602060405180830381865afa1580156101ec573d6000803e3d6000fd5b505050506040513d601f19601f8201168201806040525081019061021091906107a6565b6040516370a0823160e01b81523060048201529091506000906001600160a01b038716906370a0823190602401602060405180830381865afa15801561025a573d6000803e3d6000fd5b505050506040513d601f19601f8201168201806040525081019061027e91906107a6565b9050600061028c86846107d5565b9050848110156102ee5760405162461bcd60e51b815260206004820152602260248201527f496e73756666696369656e742070726f6669742066726f6d2061726269747261604482015261676560f01b60648201526084015b60405180910390fd5b6103026001600160a01b038816338761060a565b6040516370a0823160e01b81523060048201526000906001600160a01b038916906370a0823190602401602060405180830381865afa158015610349573d6000803e3d6000fd5b505050506040513d601f19601f8201168201806040525081019061036d91906107a6565b9050600084821161037f576000610389565b61038985836107ee565b604080516001600160a01b038c168152602081018b90529081018290529091507fb0f426448fa4a623782fa818b10ee74a8e983be515d48bc5dd90cd4432c0bd059060600160405180910390a150600198975050505050505050565b336001600160a01b037f0000000000000000000000000000000000000000000000000000000000000000161461042d5760405162461bcd60e51b81526004016102e590610801565b6040516370a0823160e01b81523060048201526000906001600160a01b038316906370a0823190602401602060405180830381865afa158015610474573d6000803e3d6000fd5b505050506040513d601f19601f8201168201806040525081019061049891906107a6565b905080156104d4576104d46001600160a01b0383167f00000000000000000000000000000000000000000000000000000000000000008361060a565b5050565b336001600160a01b037f000000000000000000000000000000000000000000000000000000000000000016146105205760405162461bcd60e51b81526004016102e590610801565b6104d46001600160a01b0383167f00000000000000000000000000000000000000000000000000000000000000008361060a565b336001600160a01b037f0000000000000000000000000000000000000000000000000000000000000000161461059c5760405162461bcd60e51b81526004016102e590610801565b600080546001600160a01b038481166001600160a01b03199283168117909355600180549185169190921681179091556040805192835260208301919091527f21baedc621b715a34ba27312a07d13d9fefd74e0fe7770fef56db94f3399e5ba910160405180910390a15050565b604080516001600160a01b038416602482015260448082018490528251808303909101815260649091019091526020810180516001600160e01b031663a9059cbb60e01b17905261065c908490610661565b505050565b600080602060008451602086016000885af180610684576040513d6000823e3d81fd5b50506000513d9150811561069c5780600114156106a9565b6001600160a01b0384163b155b156106d257604051635274afe760e01b81526001600160a01b03851660048201526024016102e5565b50505050565b80356001600160a01b03811681146106ef57600080fd5b919050565b60008060006060848603121561070957600080fd5b610712846106d8565b95602085013595506040909401359392505050565b60006020828403121561073957600080fd5b610742826106d8565b9392505050565b6000806040838503121561075c57600080fd5b610765836106d8565b946020939093013593505050565b6000806040838503121561078657600080fd5b61078f836106d8565b915061079d602084016106d8565b90509250929050565b6000602082840312156107b857600080fd5b5051919050565b634e487b7160e01b600052601160045260246000fd5b808201808211156107e8576107e86107bf565b92915050565b818103818111156107e8576107e86107bf565b6020808252600990820152682737ba1037bbb732b960b91b60408201526060019056fea2646970667358221220a4a46510048cb9bff6c84d4d5b04ead60132c85e0ad449860ef26d6abc78670064736f6c63430008140033","opcodes":"PUSH1 0xA0 PUSH1 0x40 MSTORE CALLVALUE DUP1 ISZERO PUSH2 0x10 JUMPI PUSH1 0x0 DUP1 REVERT JUMPDEST POP PUSH1 0x40 MLOAD PUSH2 0x94B CODESIZE SUB DUP1 PUSH2 0x94B DUP4 CODECOPY DUP2 ADD PUSH1 0x40 DUP2 SWAP1 MSTORE PUSH2 0x2F SWAP2 PUSH2 0x80 JUMP JUMPDEST CALLER PUSH1 0x80 MSTORE PUSH1 0x0 DUP1 SLOAD PUSH1 0x1 PUSH1 0x1 PUSH1 0xA0 SHL SUB SWAP4 DUP5 AND PUSH1 0x1 PUSH1 0x1 PUSH1 0xA0 SHL SUB NOT SWAP2 DUP3 AND OR SWAP1 SWAP2 SSTORE PUSH1 0x1 DUP1 SLOAD SWAP3 SWAP1 SWAP4 AND SWAP2 AND OR SWAP1 SSTORE PUSH2 0xB3 JUMP JUMPDEST DUP1 MLOAD PUSH1 0x1 PUSH1 0x1 PUSH1 0xA0 SHL SUB DUP2 AND DUP2 EQ PUSH2 0x7B JUMPI PUSH1 0x0 DUP1 REVERT JUMPDEST SWAP2 SWAP1 POP JUMP JUMPDEST PUSH1 0x0 DUP1 PUSH1 0x40 DUP4 DUP6 SUB SLT ISZERO PUSH2 0x93 JUMPI PUSH1 0x0 DUP1 REVERT JUMPDEST PUSH2 0x9C DUP4 PUSH2 0x64 JUMP JUMPDEST SWAP2 POP PUSH2 0xAA PUSH1 0x20 DUP5 ADD PUSH2 0x64 JUMP JUMPDEST SWAP1 POP SWAP3 POP SWAP3 SWAP1 POP JUMP JUMPDEST PUSH1 0x80 MLOAD PUSH2 0x85A PUSH2 0xF1 PUSH1 0x0 CODECOPY PUSH1 0x0 DUP2 DUP2 PUSH2 0x121 ADD MSTORE DUP2 DUP2 PUSH2 0x3F0 ADD MSTORE DUP2 DUP2 PUSH2 0x4AF ADD MSTORE DUP2 DUP2 PUSH2 0x4E3 ADD MSTORE DUP2 DUP2 PUSH2 0x52F ADD MSTORE PUSH2 0x55F ADD MSTORE PUSH2 0x85A PUSH1 0x0 RETURN INVALID PUSH1 0x80 PUSH1 0x40 MSTORE PUSH1 0x4 CALLDATASIZE LT PUSH2 0x74 JUMPI PUSH1 0x0 CALLDATALOAD PUSH1 0xE0 SHR DUP1 PUSH4 0x8DA5CB5B GT PUSH2 0x4E JUMPI DUP1 PUSH4 0x8DA5CB5B EQ PUSH2 0x10F JUMPI DUP1 PUSH4 0xAAFC9651 EQ PUSH2 0x143 JUMPI DUP1 PUSH4 0xC0E5DADA EQ PUSH2 0x163 JUMPI DUP1 PUSH4 0xFA29E6B1 EQ PUSH2 0x183 JUMPI PUSH1 0x0 DUP1 REVERT JUMPDEST DUP1 PUSH4 0x4C02A7A7 EQ PUSH2 0x80 JUMPI DUP1 PUSH4 0x5767A74F EQ PUSH2 0xBD JUMPI DUP1 PUSH4 0x6FF1C9BC EQ PUSH2 0xED JUMPI PUSH1 0x0 DUP1 REVERT JUMPDEST CALLDATASIZE PUSH2 0x7B JUMPI STOP JUMPDEST PUSH1 0x0 DUP1 REVERT JUMPDEST CALLVALUE DUP1 ISZERO PUSH2 0x8C JUMPI PUSH1 0x0 DUP1 REVERT JUMPDEST POP PUSH1 0x0 SLOAD PUSH2 0xA0 SWAP1 PUSH1 0x1 PUSH1 0x1 PUSH1 0xA0 SHL SUB AND DUP2 JUMP JUMPDEST PUSH1 0x40 MLOAD PUSH1 0x1 PUSH1 0x1 PUSH1 0xA0 SHL SUB SWAP1 SWAP2 AND DUP2 MSTORE PUSH1 0x20 ADD JUMPDEST PUSH1 0x40 MLOAD DUP1 SWAP2 SUB SWAP1 RETURN JUMPDEST CALLVALUE DUP1 ISZERO PUSH2 0xC9 JUMPI PUSH1 0x0 DUP1 REVERT JUMPDEST POP PUSH2 0xDD PUSH2 0xD8 CALLDATASIZE PUSH1 0x4 PUSH2 0x6F4 JUMP JUMPDEST PUSH2 0x1A3 JUMP JUMPDEST PUSH1 0x40 MLOAD SWAP1 ISZERO ISZERO DUP2 MSTORE PUSH1 0x20 ADD PUSH2 0xB4 JUMP JUMPDEST CALLVALUE DUP1 ISZERO PUSH2 0xF9 JUMPI PUSH1 0x0 DUP1 REVERT JUMPDEST POP PUSH2 0x10D PUSH2 0x108 CALLDATASIZE PUSH1 0x4 PUSH2 0x727 JUMP JUMPDEST PUSH2 0x3E5 JUMP JUMPDEST STOP JUMPDEST CALLVALUE DUP1 ISZERO PUSH2 0x11B JUMPI PUSH1 0x0 DUP1 REVERT JUMPDEST POP PUSH2 0xA0 PUSH32 0x0 DUP2 JUMP JUMPDEST CALLVALUE DUP1 ISZERO PUSH2 0x14F JUMPI PUSH1 0x0 DUP1 REVERT JUMPDEST POP PUSH2 0x10D PUSH2 0x15E CALLDATASIZE PUSH1 0x4 PUSH2 0x749 JUMP JUMPDEST PUSH2 0x4D8 JUMP JUMPDEST CALLVALUE DUP1 ISZERO PUSH2 0x16F JUMPI PUSH1 0x0 DUP1 REVERT JUMPDEST POP PUSH2 0x10D PUSH2 0x17E CALLDATASIZE PUSH1 0x4 PUSH2 0x773 JUMP JUMPDEST PUSH2 0x554 JUMP JUMPDEST CALLVALUE DUP1 ISZERO PUSH2 0x18F JUMPI PUSH1 0x0 DUP1 REVERT JUMPDEST POP PUSH1 0x1 SLOAD PUSH2 0xA0 SWAP1 PUSH1 0x1 PUSH1 0x1 PUSH1 0xA0 SHL SUB AND DUP2 JUMP JUMPDEST PUSH1 0x40 MLOAD PUSH4 0x70A08231 PUSH1 0xE0 SHL DUP2 MSTORE ADDRESS PUSH1 0x4 DUP3 ADD MSTORE PUSH1 0x0 SWAP1 DUP2 SWAP1 PUSH1 0x1 PUSH1 0x1 PUSH1 0xA0 SHL SUB DUP7 AND SWAP1 PUSH4 0x70A08231 SWAP1 PUSH1 0x24 ADD PUSH1 0x20 PUSH1 0x40 MLOAD DUP1 DUP4 SUB DUP2 DUP7 GAS STATICCALL ISZERO DUP1 ISZERO PUSH2 0x1EC JUMPI RETURNDATASIZE PUSH1 0x0 DUP1 RETURNDATACOPY RETURNDATASIZE PUSH1 0x0 REVERT JUMPDEST POP POP POP POP PUSH1 0x40 MLOAD RETURNDATASIZE PUSH1 0x1F NOT PUSH1 0x1F DUP3 ADD AND DUP3 ADD DUP1 PUSH1 0x40 MSTORE POP DUP2 ADD SWAP1 PUSH2 0x210 SWAP2 SWAP1 PUSH2 0x7A6 JUMP JUMPDEST PUSH1 0x40 MLOAD PUSH4 0x70A08231 PUSH1 0xE0 SHL DUP2 MSTORE ADDRESS PUSH1 0x4 DUP3 ADD MSTORE SWAP1 SWAP2 POP PUSH1 0x0 SWAP1 PUSH1 0x1 PUSH1 0x1 PUSH1 0xA0 SHL SUB DUP8 AND SWAP1 PUSH4 0x70A08231 SWAP1 PUSH1 0x24 ADD PUSH1 0x20 PUSH1 0x40 MLOAD DUP1 DUP4 SUB DUP2 DUP7 GAS STATICCALL ISZERO DUP1 ISZERO PUSH2 0x25A JUMPI RETURNDATASIZE PUSH1 0x0 DUP1 RETURNDATACOPY RETURNDATASIZE PUSH1 0x0 REVERT JUMPDEST POP POP POP POP PUSH1 0x40 MLOAD RETURNDATASIZE PUSH1 0x1F NOT PUSH1 0x1F DUP3 ADD AND DUP3 ADD DUP1 PUSH1 0x40 MSTORE POP DUP2 ADD SWAP1 PUSH2 0x27E SWAP2 SWAP1 PUSH2 0x7A6 JUMP JUMPDEST SWAP1 POP PUSH1 0x0 PUSH2 0x28C DUP7 DUP5 PUSH2 0x7D5 JUMP JUMPDEST SWAP1 POP DUP5 DUP2 LT ISZERO PUSH2 0x2EE JUMPI PUSH1 0x40 MLOAD PUSH3 0x461BCD PUSH1 0xE5 SHL DUP2 MSTORE PUSH1 0x20 PUSH1 0x4 DUP3 ADD MSTORE PUSH1 0x22 PUSH1 0x24 DUP3 ADD MSTORE PUSH32 0x496E73756666696369656E742070726F6669742066726F6D2061726269747261 PUSH1 0x44 DUP3 ADD MSTORE PUSH2 0x6765 PUSH1 0xF0 SHL PUSH1 0x64 DUP3 ADD MSTORE PUSH1 0x84 ADD JUMPDEST PUSH1 0x40 MLOAD DUP1 SWAP2 SUB SWAP1 REVERT JUMPDEST PUSH2 0x302 PUSH1 0x1 PUSH1 0x1 PUSH1 0xA0 SHL SUB DUP9 AND CALLER DUP8 PUSH2 0x60A JUMP JUMPDEST PUSH1 0x40 MLOAD PUSH4 0x70A08231 PUSH1 0xE0 SHL DUP2 MSTORE ADDRESS PUSH1 0x4 DUP3 ADD MSTORE PUSH1 0x0 SWAP1 PUSH1 0x1 PUSH1 0x1 PUSH1 0xA0 SHL SUB DUP10 AND SWAP1 PUSH4 0x70A08231 SWAP1 PUSH1 0x24 ADD PUSH1 0x20 PUSH1 0x40 MLOAD DUP1 DUP4 SUB DUP2 DUP7 GAS STATICCALL ISZERO DUP1 ISZERO PUSH2 0x349 JUMPI RETURNDATASIZE PUSH1 0x0 DUP1 RETURNDATACOPY RETURNDATASIZE PUSH1 0x0 REVERT JUMPDEST POP POP POP POP PUSH1 0x40 MLOAD RETURNDATASIZE PUSH1 0x1F NOT PUSH1 0x1F DUP3 ADD AND DUP3 ADD DUP1 PUSH1 0x40 MSTORE POP DUP2 ADD SWAP1 PUSH2 0x36D SWAP2 SWAP1 PUSH2 0x7A6 JUMP JUMPDEST SWAP1 POP PUSH1 0x0 DUP5 DUP3 GT PUSH2 0x37F JUMPI PUSH1 0x0 PUSH2 0x389 JUMP JUMPDEST PUSH2 0x389 DUP6 DUP4 PUSH2 0x7EE JUMP JUMPDEST PUSH1 0x40 DUP1 MLOAD PUSH1 0x1 PUSH1 0x1 PUSH1 0xA0 SHL SUB DUP13 AND DUP2 MSTORE PUSH1 0x20 DUP2 ADD DUP12 SWAP1 MSTORE SWAP1 DUP2 ADD DUP3 SWAP1 MSTORE SWAP1 SWAP2 POP PUSH32 0xB0F426448FA4A623782FA818B10EE74A8E983BE515D48BC5DD90CD4432C0BD05 SWAP1 PUSH1 0x60 ADD PUSH1 0x40 MLOAD DUP1 SWAP2 SUB SWAP1 LOG1 POP PUSH1 0x1 SWAP9 SWAP8 POP POP POP POP POP POP POP POP JUMP JUMPDEST CALLER PUSH1 0x1 PUSH1 0x1 PUSH1 0xA0 SHL SUB PUSH32 0x0 AND EQ PUSH2 0x42D JUMPI PUSH1 0x40 MLOAD PUSH3 0x461BCD PUSH1 0xE5 SHL DUP2 MSTORE PUSH1 0x4 ADD PUSH2 0x2E5 SWAP1 PUSH2 0x801 JUMP JUMPDEST PUSH1 0x40 MLOAD PUSH4 0x70A08231 PUSH1 0xE0 SHL DUP2 MSTORE ADDRESS PUSH1 0x4 DUP3 ADD MSTORE PUSH1 0x0 SWAP1 PUSH1 0x1 PUSH1 0x1 PUSH1 0xA0 SHL SUB DUP4 AND SWAP1 PUSH4 0x70A08231 SWAP1 PUSH1 0x24 ADD PUSH1 0x20 PUSH1 0x40 MLOAD DUP1 DUP4 SUB DUP2 DUP7 GAS STATICCALL ISZERO DUP1 ISZERO PUSH2 0x474 JUMPI RETURNDATASIZE PUSH1 0x0 DUP1 RETURNDATACOPY RETURNDATASIZE PUSH1 0x0 REVERT JUMPDEST POP POP POP POP PUSH1 0x40 MLOAD RETURNDATASIZE PUSH1 0x1F NOT PUSH1 0x1F DUP3 ADD AND DUP3 ADD DUP1 PUSH1 0x40 MSTORE POP DUP2 ADD SWAP1 PUSH2 0x498 SWAP2 SWAP1 PUSH2 0x7A6 JUMP JUMPDEST SWAP1 POP DUP1 ISZERO PUSH2 0x4D4 JUMPI PUSH2 0x4D4 PUSH1 0x1 PUSH1 0x1 PUSH1 0xA0 SHL SUB DUP4 AND PUSH32 0x0 DUP4 PUSH2 0x60A JUMP JUMPDEST POP POP JUMP JUMPDEST CALLER PUSH1 0x1 PUSH1 0x1 PUSH1 0xA0 SHL SUB PUSH32 0x0 AND EQ PUSH2 0x520 JUMPI PUSH1 0x40 MLOAD PUSH3 0x461BCD PUSH1 0xE5 SHL DUP2 MSTORE PUSH1 0x4 ADD PUSH2 0x2E5 SWAP1 PUSH2 0x801 JUMP JUMPDEST PUSH2 0x4D4 PUSH1 0x1 PUSH1 0x1 PUSH1 0xA0 SHL SUB DUP4 AND PUSH32 0x0 DUP4 PUSH2 0x60A JUMP JUMPDEST CALLER PUSH1 0x1 PUSH1 0x1 PUSH1 0xA0 SHL SUB PUSH32 0x0 AND EQ PUSH2 0x59C JUMPI PUSH1 0x40 MLOAD PUSH3 0x461BCD PUSH1 0xE5 SHL DUP2 MSTORE PUSH1 0x4 ADD PUSH2 0x2E5 SWAP1 PUSH2 0x801 JUMP JUMPDEST PUSH1 0x0 DUP1 SLOAD PUSH1 0x1 PUSH1 0x1 PUSH1 0xA0 SHL SUB DUP5 DUP2 AND PUSH1 0x1 PUSH1 0x1 PUSH1 0xA0 SHL SUB NOT SWAP3 DUP4 AND DUP2 OR SWAP1 SWAP4 SSTORE PUSH1 0x1 DUP1 SLOAD SWAP2 DUP6 AND SWAP2 SWAP1 SWAP3 AND DUP2 OR SWAP1 SWAP2 SSTORE PUSH1 0x40 DUP1 MLOAD SWAP3 DUP4 MSTORE PUSH1 0x20 DUP4 ADD SWAP2 SWAP1 SWAP2 MSTORE PUSH32 0x21BAEDC621B715A34BA27312A07D13D9FEFD74E0FE7770FEF56DB94F3399E5BA SWAP2 ADD PUSH1 0x40 MLOAD DUP1 SWAP2 SUB SWAP1 LOG1 POP POP JUMP JUMPDEST PUSH1 0x40 DUP1 MLOAD PUSH1 0x1 PUSH1 0x1 PUSH1 0xA0 SHL SUB DUP5 AND PUSH1 0x24 DUP3 ADD MSTORE PUSH1 0x44 DUP1 DUP3 ADD DUP5 SWAP1 MSTORE DUP3 MLOAD DUP1 DUP4 SUB SWAP1 SWAP2 ADD DUP2 MSTORE PUSH1 0x64 SWAP1 SWAP2 ADD SWAP1 SWAP2 MSTORE PUSH1 0x20 DUP2 ADD DUP1 MLOAD PUSH1 0x1 PUSH1 0x1 PUSH1 0xE0 SHL SUB AND PUSH4 0xA9059CBB PUSH1 0xE0 SHL OR SWAP1 MSTORE PUSH2 0x65C SWAP1 DUP5 SWAP1 PUSH2 0x661 JUMP JUMPDEST POP POP POP JUMP JUMPDEST PUSH1 0x0 DUP1 PUSH1 0x20 PUSH1 0x0 DUP5 MLOAD PUSH1 0x20 DUP7 ADD PUSH1 0x0 DUP9 GAS CALL DUP1 PUSH2 0x684 JUMPI PUSH1 0x40 MLOAD RETURNDATASIZE PUSH1 0x0 DUP3 RETURNDATACOPY RETURNDATASIZE DUP2 REVERT JUMPDEST POP POP PUSH1 0x0 MLOAD RETURNDATASIZE SWAP2 POP DUP2 ISZERO PUSH2 0x69C JUMPI DUP1 PUSH1 0x1 EQ ISZERO PUSH2 0x6A9 JUMP JUMPDEST PUSH1 0x1 PUSH1 0x1 PUSH1 0xA0 SHL SUB DUP5 AND EXTCODESIZE ISZERO JUMPDEST ISZERO PUSH2 0x6D2 JUMPI PUSH1 0x40 MLOAD PUSH4 0x5274AFE7 PUSH1 0xE0 SHL DUP2 MSTORE PUSH1 0x1 PUSH1 0x1 PUSH1 0xA0 SHL SUB DUP6 AND PUSH1 0x4 DUP3 ADD MSTORE PUSH1 0x24 ADD PUSH2 0x2E5 JUMP JUMPDEST POP POP POP POP JUMP JUMPDEST DUP1 CALLDATALOAD PUSH1 0x1 PUSH1 0x1 PUSH1 0xA0 SHL SUB DUP2 AND DUP2 EQ PUSH2 0x6EF JUMPI PUSH1 0x0 DUP1 REVERT JUMPDEST SWAP2 SWAP1 POP JUMP JUMPDEST PUSH1 0x0 DUP1 PUSH1 0x0 PUSH1 0x60 DUP5 DUP7 SUB SLT ISZERO PUSH2 0x709 JUMPI PUSH1 0x0 DUP1 REVERT JUMPDEST PUSH2 0x712 DUP5 PUSH2 0x6D8 JUMP JUMPDEST SWAP6 PUSH1 0x20 DUP6 ADD CALLDATALOAD SWAP6 POP PUSH1 0x40 SWAP1 SWAP5 ADD CALLDATALOAD SWAP4 SWAP3 POP POP POP JUMP JUMPDEST PUSH1 0x0 PUSH1 0x20 DUP3 DUP5 SUB SLT ISZERO PUSH2 0x739 JUMPI PUSH1 0x0 DUP1 REVERT JUMPDEST PUSH2 0x742 DUP3 PUSH2 0x6D8 JUMP JUMPDEST SWAP4 SWAP3 POP POP POP JUMP JUMPDEST PUSH1 0x0 DUP1 PUSH1 0x40 DUP4 DUP6 SUB SLT ISZERO PUSH2 0x75C JUMPI PUSH1 0x0 DUP1 REVERT JUMPDEST PUSH2 0x765 DUP4 PUSH2 0x6D8 JUMP JUMPDEST SWAP5 PUSH1 0x20 SWAP4 SWAP1 SWAP4 ADD CALLDATALOAD SWAP4 POP POP POP JUMP JUMPDEST PUSH1 0x0 DUP1 PUSH1 0x40 DUP4 DUP6 SUB SLT ISZERO PUSH2 0x786 JUMPI PUSH1 0x0 DUP1 REVERT JUMPDEST PUSH2 0x78F DUP4 PUSH2 0x6D8 JUMP JUMPDEST SWAP2 POP PUSH2 0x79D PUSH1 0x20 DUP5 ADD PUSH2 0x6D8 JUMP JUMPDEST SWAP1 POP SWAP3 POP SWAP3 SWAP1 POP JUMP JUMPDEST PUSH1 0x0 PUSH1 0x20 DUP3 DUP5 SUB SLT ISZERO PUSH2 0x7B8 JUMPI PUSH1 0x0 DUP1 REVERT JUMPDEST POP MLOAD SWAP2 SWAP1 POP JUMP JUMPDEST PUSH4 0x4E487B71 PUSH1 0xE0 SHL PUSH1 0x0 MSTORE PUSH1 0x11 PUSH1 0x4 MSTORE PUSH1 0x24 PUSH1 0x0 REVERT JUMPDEST DUP1 DUP3 ADD DUP1 DUP3 GT ISZERO PUSH2 0x7E8 JUMPI PUSH2 0x7E8 PUSH2 0x7BF JUMP JUMPDEST SWAP3 SWAP2 POP POP JUMP JUMPDEST DUP2 DUP2 SUB DUP2 DUP2 GT ISZERO PUSH2 0x7E8 JUMPI PUSH2 0x7E8 PUSH2 0x7BF JUMP JUMPDEST PUSH1 0x20 DUP1 DUP3 MSTORE PUSH1 0x9 SWAP1 DUP3 ADD MSTORE PUSH9 0x2737BA1037BBB732B9 PUSH1 0xB9 SHL PUSH1 0x40 DUP3 ADD MSTORE PUSH1 0x60 ADD SWAP1 JUMP INVALID LOG2 PUSH5 0x6970667358 0x22 SLT KECCAK256 LOG4 LOG4 PUSH6 0x10048CB9BFF6 0xC8 0x4D 0x4D JUMPDEST DIV 0xEA 0xD6 ADD ORIGIN 0xC8 0x5E EXP 0xD4 0x49 DUP7 0xE CALLCODE PUSH14 0x6ABC78670064736F6C6343000814 STOP CALLER "},"methodIdentifiers":{"dexA()":"4c02a7a7","dexB()":"fa29e6b1","emergencyWithdraw(address)":"6ff1c9bc","executeArbitrage(address,uint256,uint256)":"5767a74f","owner()":"8da5cb5b","updateDEXAddresses(address,address)":"c0e5dada","withdrawProfits(address,uint256)":"aafc9651"}}}}}