{
  "_format": "hh-sol-artifact-1",
  "contractName": "ExampleDEXArbitrage",
  "sourceName": "contracts/examples/ExampleDEXArbitrage.sol",
  "abi": [
    {
      "inputs": [
        {
          "internalType": "address",
          "name": "_dexA",
          "type": "address"
        },
        {
          "internalType": "address",
          "name": "_dexB",
          "type": "address"
        }
      ],
      "stateMutability": "nonpayable",
      "type": "constructor"
    },
    {
      "inputs": [
        {
          "internalType": "address",
          "name": "token",
          "type": "address"
        }
      ],
      "name": "SafeERC20FailedOperation",
      "type": "error"
    },
    {
      "anonymous": false,
      "inputs": [
        {
          "indexed": false,
          "internalType": "address",
          "name": "token",
          "type": "address"
        },
        {
          "indexed": false,
          "internalType": "uint256",
          "name": "amountIn",
          "type": "uint256"
        },
        {
          "indexed": false,
          "internalType": "uint256",
          "name": "profit",
          "type": "uint256"
        }
      ],
      "name": "ArbitrageAttempted",
      "type": "event"
    },
    {
      "anonymous": false,
      "inputs": [
        {
          "indexed": false,
          "internalType": "address",
          "name": "dexA",
          "type": "address"
        },
        {
          "indexed": false,
          "internalType": "address",
          "name": "dexB",
          "type": "address"
        }
      ],
      "name": "DEXAddressesUpdated",
      "type": "event"
    },
    {
      "inputs": [],
      "name": "dexA",
      "outputs": [
        {
          "internalType": "address",
          "name": "",
          "type": "address"
        }
      ],
      "stateMutability": "view",
      "type": "function"
    },
    {
      "inputs": [],
      "name": "dexB",
      "outputs": [
        {
          "internalType": "address",
          "name": "",
          "type": "address"
        }
      ],
      "stateMutability": "view",
      "type": "function"
    },
    {
      "inputs": [
        {
          "internalType": "address",
          "name": "token",
          "type": "address"
        }
      ],
      "name": "emergencyWithdraw",
      "outputs": [],
      "stateMutability": "nonpayable",
      "type": "function"
    },
    {
      "inputs": [
        {
          "internalType": "address",
          "name": "token",
          "type": "address"
        },
        {
          "internalType": "uint256",
          "name": "amount",
          "type": "uint256"
        },
        {
          "internalType": "uint256",
          "name": "requiredReturn",
          "type": "uint256"
        }
      ],
      "name": "executeArbitrage",
      "outputs": [
        {
          "internalType": "bool",
          "name": "success",
          "type": "bool"
        }
      ],
      "stateMutability": "nonpayable",
      "type": "function"
    },
    {
      "inputs": [],
      "name": "owner",
      "outputs": [
        {
          "internalType": "address",
          "name": "",
          "type": "address"
        }
      ],
      "stateMutability": "view",
      "type": "function"
    },
    {
      "inputs": [
        {
          "internalType": "address",
          "name": "_dexA",
          "type": "address"
        },
        {
          "internalType": "address",
          "name": "_dexB",
          "type": "address"
        }
      ],
      "name": "updateDEXAddresses",
      "outputs": [],
      "stateMutability": "nonpayable",
      "type": "function"
    },
    {
      "inputs": [
        {
          "internalType": "address",
          "name": "token",
          "type": "address"
        },
        {
          "internalType": "uint256",
          "name": "amount",
          "type": "uint256"
        }
      ],
      "name": "withdrawProfits",
      "outputs": [],
      "stateMutability": "nonpayable",
      "type": "function"
    },
    {
      "stateMutability": "payable",
      "type": "receive"
    }
  ],
  "bytecode": "0x60a060405234801561001057600080fd5b5060405161094b38038061094b83398101604081905261002f91610080565b33608052600080546001600160a01b039384166001600160a01b031991821617909155600180549290931691161790556100b3565b80516001600160a01b038116811461007b57600080fd5b919050565b6000806040838503121561009357600080fd5b61009c83610064565b91506100aa60208401610064565b90509250929050565b60805161085a6100f160003960008181610121015281816103f0015281816104af015281816104e30152818161052f015261055f015261085a6000f3fe6080604052600436106100745760003560e01c80638da5cb5b1161004e5780638da5cb5b1461010f578063aafc965114610143578063c0e5dada14610163578063fa29e6b11461018357600080fd5b80634c02a7a7146100805780635767a74f146100bd5780636ff1c9bc146100ed57600080fd5b3661007b57005b600080fd5b34801561008c57600080fd5b506000546100a0906001600160a01b031681565b6040516001600160a01b0390911681526020015b60405180910390f35b3480156100c957600080fd5b506100dd6100d83660046106f4565b6101a3565b60405190151581526020016100b4565b3480156100f957600080fd5b5061010d610108366004610727565b6103e5565b005b34801561011b57600080fd5b506100a07f000000000000000000000000000000000000000000000000000000000000000081565b34801561014f57600080fd5b5061010d61015e366004610749565b6104d8565b34801561016f57600080fd5b5061010d61017e366004610773565b610554565b34801561018f57600080fd5b506001546100a0906001600160a01b031681565b6040516370a0823160e01b815230600482015260009081906001600160a01b038616906370a0823190602401602060405180830381865afa1580156101ec573d6000803e3d6000fd5b505050506040513d601f19601f8201168201806040525081019061021091906107a6565b6040516370a0823160e01b81523060048201529091506000906001600160a01b038716906370a0823190602401602060405180830381865afa15801561025a573d6000803e3d6000fd5b505050506040513d601f19601f8201168201806040525081019061027e91906107a6565b9050600061028c86846107d5565b9050848110156102ee5760405162461bcd60e51b815260206004820152602260248201527f496e73756666696369656e742070726f6669742066726f6d2061726269747261604482015261676560f01b60648201526084015b60405180910390fd5b6103026001600160a01b038816338761060a565b6040516370a0823160e01b81523060048201526000906001600160a01b038916906370a0823190602401602060405180830381865afa158015610349573d6000803e3d6000fd5b505050506040513d601f19601f8201168201806040525081019061036d91906107a6565b9050600084821161037f576000610389565b61038985836107ee565b604080516001600160a01b038c168152602081018b90529081018290529091507fb0f426448fa4a623782fa818b10ee74a8e983be515d48bc5dd90cd4432c0bd059060600160405180910390a150600198975050505050505050565b336001600160a01b037f0000000000000000000000000000000000000000000000000000000000000000161461042d5760405162461bcd60e51b81526004016102e590610801565b6040516370a0823160e01b81523060048201526000906001600160a01b038316906370a0823190602401602060405180830381865afa158015610474573d6000803e3d6000fd5b505050506040513d601f19601f8201168201806040525081019061049891906107a6565b905080156104d4576104d46001600160a01b0383167f00000000000000000000000000000000000000000000000000000000000000008361060a565b5050565b336001600160a01b037f000000000000000000000000000000000000000000000000000000000000000016146105205760405162461bcd60e51b81526004016102e590610801565b6104d46001600160a01b0383167f00000000000000000000000000000000000000000000000000000000000000008361060a565b336001600160a01b037f0000000000000000000000000000000000000000000000000000000000000000161461059c5760405162461bcd60e51b81526004016102e590610801565b600080546001600160a01b038481166001600160a01b03199283168117909355600180549185169190921681179091556040805192835260208301919091527f21baedc621b715a34ba27312a07d13d9fefd74e0fe7770fef56db94f3399e5ba910160405180910390a15050565b604080516001600160a01b038416602482015260448082018490528251808303909101815260649091019091526020810180516001600160e01b031663a9059cbb60e01b17905261065c908490610661565b505050565b600080602060008451602086016000885af180610684576040513d6000823e3d81fd5b50506000513d9150811561069c5780600114156106a9565b6001600160a01b0384163b155b156106d257604051635274afe760e01b81526001600160a01b03851660048201526024016102e5565b50505050565b80356001600160a01b03811681146106ef57600080fd5b919050565b60008060006060848603121561070957600080fd5b610712846106d8565b95602085013595506040909401359392505050565b60006020828403121561073957600080fd5b610742826106d8565b9392505050565b6000806040838503121561075c57600080fd5b610765836106d8565b946020939093013593505050565b6000806040838503121561078657600080fd5b61078f836106d8565b915061079d602084016106d8565b90509250929050565b6000602082840312156107b857600080fd5b5051919050565b634e487b7160e01b600052601160045260246000fd5b808201808211156107e8576107e86107bf565b92915050565b818103818111156107e8576107e86107bf565b6020808252600990820152682737ba1037bbb732b960b91b60408201526060019056fea2646970667358221220a4a46510048cb9bff6c84d4d5b04ead60132c85e0ad449860ef26d6abc78670064736f6c63430008140033",
  "linkReferences": {},
  "deployedLinkReferences": {}
}