{
  "_format": "hh-sol-artifact-1",
  "contractName": "MockAavePool",
  "sourceName": "contracts/mocks/MockAavePool.sol",
  "abi": [
    {
      "inputs": [
        {
          "internalType": "address",
          "name": "token",
          "type": "address"
        }
      ],
      "name": "SafeERC20FailedOperation",
      "type": "error"
    },
    {
      "anonymous": false,
      "inputs": [
        {
          "indexed": true,
          "internalType": "address",
          "name": "user",
          "type": "address"
        },
        {
          "indexed": true,
          "internalType": "address",
          "name": "asset",
          "type": "address"
        },
        {
          "indexed": false,
          "internalType": "uint256",
          "name": "amount",
          "type": "uint256"
        }
      ],
      "name": "Borrow",
      "type": "event"
    },
    {
      "anonymous": false,
      "inputs": [
        {
          "indexed": true,
          "internalType": "address",
          "name": "receiver",
          "type": "address"
        },
        {
          "indexed": true,
          "internalType": "address",
          "name": "asset",
          "type": "address"
        },
        {
          "indexed": false,
          "internalType": "uint256",
          "name": "amount",
          "type": "uint256"
        },
        {
          "indexed": false,
          "internalType": "uint256",
          "name": "premium",
          "type": "uint256"
        }
      ],
      "name": "FlashLoan",
      "type": "event"
    },
    {
      "anonymous": false,
      "inputs": [
        {
          "indexed": true,
          "internalType": "address",
          "name": "user",
          "type": "address"
        },
        {
          "indexed": true,
          "internalType": "address",
          "name": "asset",
          "type": "address"
        },
        {
          "indexed": false,
          "internalType": "uint256",
          "name": "amount",
          "type": "uint256"
        }
      ],
      "name": "Repay",
      "type": "event"
    },
    {
      "anonymous": false,
      "inputs": [
        {
          "indexed": true,
          "internalType": "address",
          "name": "user",
          "type": "address"
        },
        {
          "indexed": true,
          "internalType": "address",
          "name": "asset",
          "type": "address"
        },
        {
          "indexed": false,
          "internalType": "uint256",
          "name": "amount",
          "type": "uint256"
        }
      ],
      "name": "Supply",
      "type": "event"
    },
    {
      "anonymous": false,
      "inputs": [
        {
          "indexed": true,
          "internalType": "address",
          "name": "user",
          "type": "address"
        },
        {
          "indexed": true,
          "internalType": "address",
          "name": "asset",
          "type": "address"
        },
        {
          "indexed": false,
          "internalType": "uint256",
          "name": "amount",
          "type": "uint256"
        }
      ],
      "name": "Withdraw",
      "type": "event"
    },
    {
      "inputs": [],
      "name": "FLASH_LOAN_FEE_BPS",
      "outputs": [
        {
          "internalType": "uint256",
          "name": "",
          "type": "uint256"
        }
      ],
      "stateMutability": "view",
      "type": "function"
    },
    {
      "inputs": [
        {
          "internalType": "address",
          "name": "asset",
          "type": "address"
        },
        {
          "internalType": "uint256",
          "name": "amount",
          "type": "uint256"
        },
        {
          "internalType": "uint256",
          "name": "",
          "type": "uint256"
        },
        {
          "internalType": "uint16",
          "name": "",
          "type": "uint16"
        },
        {
          "internalType": "address",
          "name": "onBehalfOf",
          "type": "address"
        }
      ],
      "name": "borrow",
      "outputs": [],
      "stateMutability": "nonpayable",
      "type": "function"
    },
    {
      "inputs": [
        {
          "internalType": "address",
          "name": "receiverAddress",
          "type": "address"
        },
        {
          "internalType": "address",
          "name": "asset",
          "type": "address"
        },
        {
          "internalType": "uint256",
          "name": "amount",
          "type": "uint256"
        },
        {
          "internalType": "bytes",
          "name": "params",
          "type": "bytes"
        },
        {
          "internalType": "uint16",
          "name": "",
          "type": "uint16"
        }
      ],
      "name": "flashLoanSimple",
      "outputs": [],
      "stateMutability": "nonpayable",
      "type": "function"
    },
    {
      "inputs": [
        {
          "internalType": "address",
          "name": "asset",
          "type": "address"
        },
        {
          "internalType": "uint256",
          "name": "amount",
          "type": "uint256"
        }
      ],
      "name": "fundPool",
      "outputs": [],
      "stateMutability": "nonpayable",
      "type": "function"
    },
    {
      "inputs": [
        {
          "internalType": "address",
          "name": "user",
          "type": "address"
        }
      ],
      "name": "getUserAccountData",
      "outputs": [
        {
          "internalType": "uint256",
          "name": "totalCollateralBase",
          "type": "uint256"
        },
        {
          "internalType": "uint256",
          "name": "totalDebtBase",
          "type": "uint256"
        },
        {
          "internalType": "uint256",
          "name": "availableBorrowsBase",
          "type": "uint256"
        },
        {
          "internalType": "uint256",
          "name": "currentLiquidationThreshold",
          "type": "uint256"
        },
        {
          "internalType": "uint256",
          "name": "ltv",
          "type": "uint256"
        },
        {
          "internalType": "uint256",
          "name": "healthFactor",
          "type": "uint256"
        }
      ],
      "stateMutability": "view",
      "type": "function"
    },
    {
      "inputs": [
        {
          "internalType": "address",
          "name": "asset",
          "type": "address"
        },
        {
          "internalType": "uint256",
          "name": "amount",
          "type": "uint256"
        },
        {
          "internalType": "uint256",
          "name": "",
          "type": "uint256"
        },
        {
          "internalType": "address",
          "name": "onBehalfOf",
          "type": "address"
        }
      ],
      "name": "repay",
      "outputs": [
        {
          "internalType": "uint256",
          "name": "",
          "type": "uint256"
        }
      ],
      "stateMutability": "nonpayable",
      "type": "function"
    },
    {
      "inputs": [
        {
          "internalType": "address",
          "name": "asset",
          "type": "address"
        },
        {
          "internalType": "bool",
          "name": "useAsCollateral",
          "type": "bool"
        }
      ],
      "name": "setUserUseReserveAsCollateral",
      "outputs": [],
      "stateMutability": "nonpayable",
      "type": "function"
    },
    {
      "inputs": [
        {
          "internalType": "address",
          "name": "asset",
          "type": "address"
        },
        {
          "internalType": "uint256",
          "name": "amount",
          "type": "uint256"
        },
        {
          "internalType": "address",
          "name": "onBehalfOf",
          "type": "address"
        },
        {
          "internalType": "uint16",
          "name": "",
          "type": "uint16"
        }
      ],
      "name": "supply",
      "outputs": [],
      "stateMutability": "nonpayable",
      "type": "function"
    },
    {
      "inputs": [
        {
          "internalType": "address",
          "name": "",
          "type": "address"
        },
        {
          "internalType": "address",
          "name": "",
          "type": "address"
        }
      ],
      "name": "userCollateral",
      "outputs": [
        {
          "internalType": "uint256",
          "name": "",
          "type": "uint256"
        }
      ],
      "stateMutability": "view",
      "type": "function"
    },
    {
      "inputs": [
        {
          "internalType": "address",
          "name": "",
          "type": "address"
        },
        {
          "internalType": "address",
          "name": "",
          "type": "address"
        }
      ],
      "name": "userCollateralEnabled",
      "outputs": [
        {
          "internalType": "bool",
          "name": "",
          "type": "bool"
        }
      ],
      "stateMutability": "view",
      "type": "function"
    },
    {
      "inputs": [
        {
          "internalType": "address",
          "name": "",
          "type": "address"
        },
        {
          "internalType": "address",
          "name": "",
          "type": "address"
        }
      ],
      "name": "userDebt",
      "outputs": [
        {
          "internalType": "uint256",
          "name": "",
          "type": "uint256"
        }
      ],
      "stateMutability": "view",
      "type": "function"
    },
    {
      "inputs": [
        {
          "internalType": "address",
          "name": "asset",
          "type": "address"
        },
        {
          "internalType": "uint256",
          "name": "amount",
          "type": "uint256"
        },
        {
          "internalType": "address",
          "name": "to",
          "type": "address"
        }
      ],
      "name": "withdraw",
      "outputs": [
        {
          "internalType": "uint256",
          "name": "",
          "type": "uint256"
        }
      ],
      "stateMutability": "nonpayable",
      "type": "function"
    }
  ],
  "bytecode": "0x608060405234801561001057600080fd5b50610c80806100206000396000f3fe608060405234801561001057600080fd5b50600436106100b45760003560e01c80635a3b74b9116100715780635a3b74b914610162578063617ba037146101a857806369328dec146101bb5780636dc522c5146101ce578063a415bcad1461020c578063bf92857c1461021f57600080fd5b806314c8ad2c146100b95780632b92a07d146100f75780632bfd51461461011f5780633fed1dac1461013457806342b0b77c1461013c578063573ade811461014f575b600080fd5b6100e46100c73660046108b5565b600160209081526000928352604080842090915290825290205481565b6040519081526020015b60405180910390f35b6100e46101053660046108b5565b600060208181529281526040808220909352908152205481565b61013261012d3660046108e8565b61025f565b005b6100e4600581565b61013261014a366004610924565b610278565b6100e461015d3660046109d1565b6103f9565b610132610170366004610a28565b3360009081526002602090815260408083206001600160a01b0395909516835293905291909120805460ff1916911515919091179055565b6101326101b6366004610a5f565b6104e2565b6100e46101c9366004610aa1565b610586565b6101fc6101dc3660046108b5565b600260209081526000928352604080842090915290825290205460ff1681565b60405190151581526020016100ee565b61013261021a366004610add565b610698565b61023261022d366004610b34565b61073d565b604080519687526020870195909552938501929092526060840152608083015260a082015260c0016100ee565b6102746001600160a01b038316333084610785565b5050565b6000612710610288600587610b6c565b6102929190610b89565b90506102a86001600160a01b03871688876107f2565b856001600160a01b0316876001600160a01b03167f0d7d75e01ab95780d3cd1c8ec0dd6c2ce19e3a20427eec8bf53283b6fb8e95f087846040516102f6929190918252602082015260400190565b60405180910390a3604051631b11d0ff60e01b81526000906001600160a01b03891690631b11d0ff90610337908a908a90879033908c908c90600401610bab565b6020604051808303816000875af1158015610356573d6000803e3d6000fd5b505050506040513d601f19601f8201168201806040525081019061037a9190610c07565b9050806103ce5760405162461bcd60e51b815260206004820152601a60248201527f466c617368206c6f616e2063616c6c6261636b206661696c656400000000000060448201526064015b60405180910390fd5b6103ef88306103dd858a610c24565b6001600160a01b038b16929190610785565b5050505050505050565b6001600160a01b03808216600090815260016020818152604080842094891684529390529181205490918590810161042e5750805b818111156104395750805b6001600160a01b038085166000908152600160209081526040808320938b1683529290529081208054839290610470908490610c37565b9091555061048b90506001600160a01b038816333084610785565b866001600160a01b0316846001600160a01b03167f05f2eeda0e08e4b437f487c8d7d29b14537d15e3488170dc3de5dbdf8dac4684836040516104d091815260200190565b60405180910390a39695505050505050565b6104f76001600160a01b038516333086610785565b6001600160a01b038083166000908152602081815260408083209388168352929052908120805485929061052c908490610c24565b92505081905550836001600160a01b0316826001600160a01b03167fd1cf3d156d5f8f0d50f6c122ed609cec09d35c9b9fb3fff6ea0959134dae424e8560405161057891815260200190565b60405180910390a350505050565b336000908152602081815260408083206001600160a01b038716845290915281205483600181016105b45750805b818111156106045760405162461bcd60e51b815260206004820152601760248201527f496e73756666696369656e7420636f6c6c61746572616c00000000000000000060448201526064016103c5565b336000908152602081815260408083206001600160a01b038a16845290915281208054839290610635908490610c37565b9091555061064f90506001600160a01b03871685836107f2565b6040518181526001600160a01b0387169033907f9b1bfa7fa9ee420a16e124f794c35ac9f90472acc99140eb2f6447c714cad8eb9060200160405180910390a395945050505050565b6001600160a01b038082166000908152600160209081526040808320938916835292905290812080548692906106cf908490610c24565b909155506106e990506001600160a01b03861633866107f2565b846001600160a01b0316816001600160a01b03167f312a5e5e1079f5dda4e95dbbd0b908b291fd5b992ef22073643ab691572c5b528660405161072e91815260200190565b60405180910390a35050505050565b6501d1a94a200065015d3ef7980064174876e800612134611f4060006064856107668589610b6c565b6107709190610b89565b61077a9190610b89565b905091939550919395565b6040516001600160a01b0384811660248301528381166044830152606482018390526107ec9186918216906323b872dd906084015b604051602081830303815290604052915060e01b6020820180516001600160e01b038381831617835250505050610828565b50505050565b6040516001600160a01b0383811660248301526044820183905261082391859182169063a9059cbb906064016107ba565b505050565b600080602060008451602086016000885af18061084b576040513d6000823e3d81fd5b50506000513d91508115610863578060011415610870565b6001600160a01b0384163b155b156107ec57604051635274afe760e01b81526001600160a01b03851660048201526024016103c5565b80356001600160a01b03811681146108b057600080fd5b919050565b600080604083850312156108c857600080fd5b6108d183610899565b91506108df60208401610899565b90509250929050565b600080604083850312156108fb57600080fd5b61090483610899565b946020939093013593505050565b803561ffff811681146108b057600080fd5b60008060008060008060a0878903121561093d57600080fd5b61094687610899565b955061095460208801610899565b945060408701359350606087013567ffffffffffffffff8082111561097857600080fd5b818901915089601f83011261098c57600080fd5b81358181111561099b57600080fd5b8a60208285010111156109ad57600080fd5b6020830195508094505050506109c560808801610912565b90509295509295509295565b600080600080608085870312156109e757600080fd5b6109f085610899565b93506020850135925060408501359150610a0c60608601610899565b905092959194509250565b8015158114610a2557600080fd5b50565b60008060408385031215610a3b57600080fd5b610a4483610899565b91506020830135610a5481610a17565b809150509250929050565b60008060008060808587031215610a7557600080fd5b610a7e85610899565b935060208501359250610a9360408601610899565b9150610a0c60608601610912565b600080600060608486031215610ab657600080fd5b610abf84610899565b925060208401359150610ad460408501610899565b90509250925092565b600080600080600060a08688031215610af557600080fd5b610afe86610899565b94506020860135935060408601359250610b1a60608701610912565b9150610b2860808701610899565b90509295509295909350565b600060208284031215610b4657600080fd5b610b4f82610899565b9392505050565b634e487b7160e01b600052601160045260246000fd5b8082028115828204841417610b8357610b83610b56565b92915050565b600082610ba657634e487b7160e01b600052601260045260246000fd5b500490565b6001600160a01b03878116825260208201879052604082018690528416606082015260a06080820181905281018290526000828460c0840137600060c0848401015260c0601f19601f8501168301019050979650505050505050565b600060208284031215610c1957600080fd5b8151610b4f81610a17565b80820180821115610b8357610b83610b56565b81810381811115610b8357610b83610b5656fea26469706673582212205f46029f27b9a6839c972977f43fc5f6e5e574c998900fcb11ae0c91e9496f5964736f6c63430008140033",
  "linkReferences": {},
  "deployedLinkReferences": {}
}