{
  "_format": "hh-sol-artifact-1",
  "contractName": "MockArbitrageExecutor",
  "sourceName": "contracts/mocks/MockArbitrageExecutor.sol",
  "abi": [
    {
      "inputs": [
        {
          "internalType": "address",
          "name": "token",
          "type": "address"
        }
      ],
      "name": "SafeERC20FailedOperation",
      "type": "error"
    },
    {
      "anonymous": false,
      "inputs": [
        {
          "indexed": false,
          "internalType": "address",
          "name": "token",
          "type": "address"
        },
        {
          "indexed": false,
          "internalType": "uint256",
          "name": "amount",
          "type": "uint256"
        },
        {
          "indexed": false,
          "internalType": "uint256",
          "name": "returned",
          "type": "uint256"
        }
      ],
      "name": "ArbitrageExecuted",
      "type": "event"
    },
    {
      "inputs": [
        {
          "internalType": "address",
          "name": "token",
          "type": "address"
        },
        {
          "internalType": "uint256",
          "name": "amount",
          "type": "uint256"
        },
        {
          "internalType": "uint256",
          "name": "requiredReturn",
          "type": "uint256"
        }
      ],
      "name": "executeArbitrage",
      "outputs": [
        {
          "internalType": "bool",
          "name": "",
          "type": "bool"
        }
      ],
      "stateMutability": "nonpayable",
      "type": "function"
    },
    {
      "inputs": [],
      "name": "profitAmount",
      "outputs": [
        {
          "internalType": "uint256",
          "name": "",
          "type": "uint256"
        }
      ],
      "stateMutability": "view",
      "type": "function"
    },
    {
      "inputs": [
        {
          "internalType": "uint256",
          "name": "_profitAmount",
          "type": "uint256"
        }
      ],
      "name": "setProfitAmount",
      "outputs": [],
      "stateMutability": "nonpayable",
      "type": "function"
    },
    {
      "inputs": [
        {
          "internalType": "bool",
          "name": "_shouldReturnEnough",
          "type": "bool"
        }
      ],
      "name": "setShouldReturnEnough",
      "outputs": [],
      "stateMutability": "nonpayable",
      "type": "function"
    },
    {
      "inputs": [
        {
          "internalType": "bool",
          "name": "_shouldSucceed",
          "type": "bool"
        }
      ],
      "name": "setShouldSucceed",
      "outputs": [],
      "stateMutability": "nonpayable",
      "type": "function"
    },
    {
      "inputs": [],
      "name": "shouldReturnEnough",
      "outputs": [
        {
          "internalType": "bool",
          "name": "",
          "type": "bool"
        }
      ],
      "stateMutability": "view",
      "type": "function"
    },
    {
      "inputs": [],
      "name": "shouldSucceed",
      "outputs": [
        {
          "internalType": "bool",
          "name": "",
          "type": "bool"
        }
      ],
      "stateMutability": "view",
      "type": "function"
    },
    {
      "stateMutability": "payable",
      "type": "receive"
    }
  ],
  "bytecode": "0x60806040526000805461ffff191661010117815560015534801561002257600080fd5b50610414806100326000396000f3fe6080604052600436106100735760003560e01c80635ff972cc1161004e5780635ff972cc1461010a57806397bc36001461012e5780639e31ddb61461014e578063e77deb2c1461017c57600080fd5b806290a47c1461007f5780633d890437146100b35780635767a74f146100ea57600080fd5b3661007a57005b600080fd5b34801561008b57600080fd5b5060005461009e90610100900460ff1681565b60405190151581526020015b60405180910390f35b3480156100bf57600080fd5b506100e86100ce366004610319565b600080549115156101000261ff0019909216919091179055565b005b3480156100f657600080fd5b5061009e61010536600461033b565b610196565b34801561011657600080fd5b5061012060015481565b6040519081526020016100aa565b34801561013a57600080fd5b506100e861014936600461037c565b600155565b34801561015a57600080fd5b506100e8610169366004610319565b6000805460ff1916911515919091179055565b34801561018857600080fd5b5060005461009e9060ff1681565b6000805460ff166101a957506000610240565b60008054610100900460ff16156101ce576001546101c79084610395565b90506101dc565b6101d96002846103bc565b90505b6101f06001600160a01b0386163383610247565b604080516001600160a01b0387168152602081018690529081018290527f147eadb5569d263d5aba3ca005001b85a1651d8da1204f22327ecdac7459e2ea9060600160405180910390a160019150505b9392505050565b604080516001600160a01b038416602482015260448082018490528251808303909101815260649091019091526020810180516001600160e01b031663a9059cbb60e01b17905261029990849061029e565b505050565b600080602060008451602086016000885af1806102c1576040513d6000823e3d81fd5b50506000513d915081156102d95780600114156102e6565b6001600160a01b0384163b155b1561031357604051635274afe760e01b81526001600160a01b038516600482015260240160405180910390fd5b50505050565b60006020828403121561032b57600080fd5b8135801515811461024057600080fd5b60008060006060848603121561035057600080fd5b83356001600160a01b038116811461036757600080fd5b95602085013595506040909401359392505050565b60006020828403121561038e57600080fd5b5035919050565b808201808211156103b657634e487b7160e01b600052601160045260246000fd5b92915050565b6000826103d957634e487b7160e01b600052601260045260246000fd5b50049056fea26469706673582212200cf49d970a252b61ee5f7309f7a6f455385d9600bc58b1dcfe1ced4155a09a4c64736f6c63430008140033",
  "linkReferences": {},
  "deployedLinkReferences": {}
}