{
  "_format": "hh-sol-artifact-1",
  "contractName": "FlashLoanCollateralStrategy",
  "sourceName": "contracts/FlashLoanCollateralStrategy.sol",
  "abi": [
    {
      "inputs": [
        {
          "internalType": "address",
          "name": "_aavePool",
          "type": "address"
        },
        {
          "internalType": "address",
          "name": "_flashLoanAsset",
          "type": "address"
        },
        {
          "internalType": "address",
          "name": "_borrowAsset",
          "type": "address"
        },
        {
          "internalType": "address",
          "name": "_owner",
          "type": "address"
        }
      ],
      "stateMutability": "nonpayable",
      "type": "constructor"
    },
    {
      "inputs": [
        {
          "internalType": "address",
          "name": "wallet",
          "type": "address"
        },
        {
          "internalType": "string",
          "name": "reason",
          "type": "string"
        }
      ],
      "name": "ArbitrageExecutionFailed",
      "type": "error"
    },
    {
      "inputs": [
        {
          "internalType": "string",
          "name": "reason",
          "type": "string"
        }
      ],
      "name": "FlashLoanFailed",
      "type": "error"
    },
    {
      "inputs": [
        {
          "internalType": "uint256",
          "name": "required",
          "type": "uint256"
        },
        {
          "internalType": "uint256",
          "name": "available",
          "type": "uint256"
        }
      ],
      "name": "InsufficientCollateral",
      "type": "error"
    },
    {
      "inputs": [
        {
          "internalType": "uint256",
          "name": "expected",
          "type": "uint256"
        },
        {
          "internalType": "uint256",
          "name": "actual",
          "type": "uint256"
        }
      ],
      "name": "InsufficientReturn",
      "type": "error"
    },
    {
      "inputs": [
        {
          "internalType": "string",
          "name": "parameter",
          "type": "string"
        }
      ],
      "name": "InvalidAddress",
      "type": "error"
    },
    {
      "inputs": [
        {
          "internalType": "string",
          "name": "parameter",
          "type": "string"
        }
      ],
      "name": "InvalidAmount",
      "type": "error"
    },
    {
      "inputs": [
        {
          "internalType": "address",
          "name": "owner",
          "type": "address"
        }
      ],
      "name": "OwnableInvalidOwner",
      "type": "error"
    },
    {
      "inputs": [
        {
          "internalType": "address",
          "name": "account",
          "type": "address"
        }
      ],
      "name": "OwnableUnauthorizedAccount",
      "type": "error"
    },
    {
      "inputs": [],
      "name": "ReentrancyGuardReentrantCall",
      "type": "error"
    },
    {
      "inputs": [
        {
          "internalType": "address",
          "name": "token",
          "type": "address"
        }
      ],
      "name": "SafeERC20FailedOperation",
      "type": "error"
    },
    {
      "inputs": [
        {
          "internalType": "address",
          "name": "target",
          "type": "address"
        }
      ],
      "name": "TargetMustBeContract",
      "type": "error"
    },
    {
      "inputs": [
        {
          "internalType": "address",
          "name": "caller",
          "type": "address"
        }
      ],
      "name": "UnauthorizedCallback",
      "type": "error"
    },
    {
      "anonymous": false,
      "inputs": [
        {
          "indexed": true,
          "internalType": "address",
          "name": "wallet",
          "type": "address"
        },
        {
          "indexed": false,
          "internalType": "uint256",
          "name": "amountSent",
          "type": "uint256"
        },
        {
          "indexed": false,
          "internalType": "uint256",
          "name": "amountReturned",
          "type": "uint256"
        }
      ],
      "name": "ArbitrageExecuted",
      "type": "event"
    },
    {
      "anonymous": false,
      "inputs": [
        {
          "indexed": true,
          "internalType": "address",
          "name": "asset",
          "type": "address"
        },
        {
          "indexed": false,
          "internalType": "uint256",
          "name": "amount",
          "type": "uint256"
        }
      ],
      "name": "BorrowExecuted",
      "type": "event"
    },
    {
      "anonymous": false,
      "inputs": [
        {
          "indexed": true,
          "internalType": "address",
          "name": "asset",
          "type": "address"
        },
        {
          "indexed": false,
          "internalType": "uint256",
          "name": "amount",
          "type": "uint256"
        }
      ],
      "name": "CollateralDeposited",
      "type": "event"
    },
    {
      "anonymous": false,
      "inputs": [
        {
          "indexed": true,
          "internalType": "address",
          "name": "token",
          "type": "address"
        },
        {
          "indexed": false,
          "internalType": "uint256",
          "name": "amount",
          "type": "uint256"
        },
        {
          "indexed": false,
          "internalType": "uint256",
          "name": "timestamp",
          "type": "uint256"
        }
      ],
      "name": "EmergencyWithdraw",
      "type": "event"
    },
    {
      "anonymous": false,
      "inputs": [
        {
          "indexed": false,
          "internalType": "uint256",
          "name": "oldValue",
          "type": "uint256"
        },
        {
          "indexed": false,
          "internalType": "uint256",
          "name": "newValue",
          "type": "uint256"
        }
      ],
      "name": "MinProfitUpdated",
      "type": "event"
    },
    {
      "anonymous": false,
      "inputs": [
        {
          "indexed": true,
          "internalType": "address",
          "name": "previousOwner",
          "type": "address"
        },
        {
          "indexed": true,
          "internalType": "address",
          "name": "newOwner",
          "type": "address"
        }
      ],
      "name": "OwnershipTransferred",
      "type": "event"
    },
    {
      "anonymous": false,
      "inputs": [
        {
          "indexed": false,
          "internalType": "uint256",
          "name": "profit",
          "type": "uint256"
        },
        {
          "indexed": false,
          "internalType": "uint256",
          "name": "timestamp",
          "type": "uint256"
        }
      ],
      "name": "StrategyCompleted",
      "type": "event"
    },
    {
      "anonymous": false,
      "inputs": [
        {
          "indexed": false,
          "internalType": "uint256",
          "name": "flashLoanAmount",
          "type": "uint256"
        },
        {
          "indexed": false,
          "internalType": "uint256",
          "name": "borrowAmount",
          "type": "uint256"
        },
        {
          "indexed": true,
          "internalType": "address",
          "name": "targetWallet",
          "type": "address"
        },
        {
          "indexed": false,
          "internalType": "uint256",
          "name": "timestamp",
          "type": "uint256"
        }
      ],
      "name": "StrategyInitiated",
      "type": "event"
    },
    {
      "inputs": [],
      "name": "FLASH_LOAN_FEE_BPS",
      "outputs": [
        {
          "internalType": "uint256",
          "name": "",
          "type": "uint256"
        }
      ],
      "stateMutability": "view",
      "type": "function"
    },
    {
      "inputs": [],
      "name": "aavePool",
      "outputs": [
        {
          "internalType": "address",
          "name": "",
          "type": "address"
        }
      ],
      "stateMutability": "view",
      "type": "function"
    },
    {
      "inputs": [],
      "name": "borrowAsset",
      "outputs": [
        {
          "internalType": "address",
          "name": "",
          "type": "address"
        }
      ],
      "stateMutability": "view",
      "type": "function"
    },
    {
      "inputs": [
        {
          "internalType": "uint256",
          "name": "amount",
          "type": "uint256"
        }
      ],
      "name": "calculateFlashLoanFee",
      "outputs": [
        {
          "internalType": "uint256",
          "name": "fee",
          "type": "uint256"
        }
      ],
      "stateMutability": "pure",
      "type": "function"
    },
    {
      "inputs": [
        {
          "internalType": "uint256",
          "name": "borrowAmount",
          "type": "uint256"
        },
        {
          "internalType": "uint256",
          "name": "ltv",
          "type": "uint256"
        }
      ],
      "name": "calculateRequiredCollateral",
      "outputs": [
        {
          "internalType": "uint256",
          "name": "requiredCollateral",
          "type": "uint256"
        }
      ],
      "stateMutability": "pure",
      "type": "function"
    },
    {
      "inputs": [
        {
          "internalType": "address",
          "name": "token",
          "type": "address"
        },
        {
          "internalType": "uint256",
          "name": "amount",
          "type": "uint256"
        }
      ],
      "name": "emergencyWithdraw",
      "outputs": [],
      "stateMutability": "nonpayable",
      "type": "function"
    },
    {
      "inputs": [
        {
          "internalType": "address",
          "name": "asset",
          "type": "address"
        },
        {
          "internalType": "uint256",
          "name": "amount",
          "type": "uint256"
        },
        {
          "internalType": "uint256",
          "name": "premium",
          "type": "uint256"
        },
        {
          "internalType": "address",
          "name": "initiator",
          "type": "address"
        },
        {
          "internalType": "bytes",
          "name": "params",
          "type": "bytes"
        }
      ],
      "name": "executeOperation",
      "outputs": [
        {
          "internalType": "bool",
          "name": "",
          "type": "bool"
        }
      ],
      "stateMutability": "nonpayable",
      "type": "function"
    },
    {
      "inputs": [],
      "name": "flashLoanAsset",
      "outputs": [
        {
          "internalType": "address",
          "name": "",
          "type": "address"
        }
      ],
      "stateMutability": "view",
      "type": "function"
    },
    {
      "inputs": [],
      "name": "getHealthFactor",
      "outputs": [
        {
          "internalType": "uint256",
          "name": "healthFactor",
          "type": "uint256"
        }
      ],
      "stateMutability": "view",
      "type": "function"
    },
    {
      "inputs": [],
      "name": "getUserAccountData",
      "outputs": [
        {
          "internalType": "uint256",
          "name": "totalCollateralBase",
          "type": "uint256"
        },
        {
          "internalType": "uint256",
          "name": "totalDebtBase",
          "type": "uint256"
        },
        {
          "internalType": "uint256",
          "name": "availableBorrowsBase",
          "type": "uint256"
        },
        {
          "internalType": "uint256",
          "name": "currentLiquidationThreshold",
          "type": "uint256"
        },
        {
          "internalType": "uint256",
          "name": "ltv",
          "type": "uint256"
        },
        {
          "internalType": "uint256",
          "name": "healthFactor",
          "type": "uint256"
        }
      ],
      "stateMutability": "view",
      "type": "function"
    },
    {
      "inputs": [
        {
          "internalType": "uint256",
          "name": "flashLoanAmount",
          "type": "uint256"
        },
        {
          "internalType": "uint256",
          "name": "borrowAmount",
          "type": "uint256"
        },
        {
          "internalType": "address",
          "name": "targetWallet",
          "type": "address"
        }
      ],
      "name": "initiateStrategy",
      "outputs": [],
      "stateMutability": "nonpayable",
      "type": "function"
    },
    {
      "inputs": [],
      "name": "minProfitRequired",
      "outputs": [
        {
          "internalType": "uint256",
          "name": "",
          "type": "uint256"
        }
      ],
      "stateMutability": "view",
      "type": "function"
    },
    {
      "inputs": [],
      "name": "owner",
      "outputs": [
        {
          "internalType": "address",
          "name": "",
          "type": "address"
        }
      ],
      "stateMutability": "view",
      "type": "function"
    },
    {
      "inputs": [],
      "name": "renounceOwnership",
      "outputs": [],
      "stateMutability": "nonpayable",
      "type": "function"
    },
    {
      "inputs": [
        {
          "internalType": "address",
          "name": "newOwner",
          "type": "address"
        }
      ],
      "name": "transferOwnership",
      "outputs": [],
      "stateMutability": "nonpayable",
      "type": "function"
    },
    {
      "inputs": [
        {
          "internalType": "uint256",
          "name": "newMinProfit",
          "type": "uint256"
        }
      ],
      "name": "updateMinProfit",
      "outputs": [],
      "stateMutability": "nonpayable",
      "type": "function"
    }
  ],
  "bytecode": "0x60e06040523480156200001157600080fd5b5060405162001bfd38038062001bfd83398101604081905262000034916200021c565b806001600160a01b0381166200006557604051631e4fbdf760e01b8152600060048201526024015b60405180910390fd5b6200007081620001af565b50600180556001600160a01b038416620000b957604051630b0f5aa160e11b815260206004820152600860248201526718585d99541bdbdb60c21b60448201526064016200005c565b6001600160a01b0383166200010357604051630b0f5aa160e11b815260206004820152600e60248201526d199b185cda131bd85b905cdcd95d60921b60448201526064016200005c565b6001600160a01b0382166200014a57604051630b0f5aa160e11b815260206004820152600b60248201526a189bdc9c9bddd05cdcd95d60aa1b60448201526064016200005c565b6001600160a01b0381166200018b57604051630b0f5aa160e11b815260206004820152600560248201526437bbb732b960d91b60448201526064016200005c565b506001600160a01b0392831660805290821660a0521660c052600060025562000279565b600080546001600160a01b038381166001600160a01b0319831681178455604051919092169283917f8be0079c531659141344cd1fd0a4f28419497f9722a3daafe3b4186f6b6457e09190a35050565b80516001600160a01b03811681146200021757600080fd5b919050565b600080600080608085870312156200023357600080fd5b6200023e85620001ff565b93506200024e60208601620001ff565b92506200025e60408601620001ff565b91506200026e60608601620001ff565b905092959194509250565b60805160a05160c051611889620003746000396000818161019c015281816105de0152818161067f015281816106f80152818161077a015281816107db015281816108e8015281816109f301528181610a530152610c3201526000818161010a0152818161032b015281816103cc0152818161042a015281816104d70152818161056601528181610b1501528181610bd301526110fa01526000818161021e015281816102b0015281816103ee01528181610466015281816105060152818161062101528181610a1501528181610a9001528181610b4a01528181610bf501528181610eb5015281816110cb015261119501526118896000f3fe608060405234801561001057600080fd5b50600436106101005760003560e01c80638da5cb5b11610097578063a5f352b711610066578063a5f352b714610240578063c694143714610248578063e125e5b81461025b578063f2fde38b1461029057600080fd5b80638da5cb5b146101ec57806395ccea67146101fd5780639dbdd79d14610210578063a03e4bc31461021957600080fd5b8063446456e5116100d3578063446456e5146101975780635fd1a5f5146101be578063715018a6146101d157806371507cd5146101d957600080fd5b80630c52428d146101055780631b11d0ff146101495780633b42e5e21461016c5780633fed1dac14610181575b600080fd5b61012c7f000000000000000000000000000000000000000000000000000000000000000081565b6040516001600160a01b0390911681526020015b60405180910390f35b61015c610157366004611543565b6102a3565b6040519015158152602001610140565b61017f61017a3660046115ed565b610cf8565b005b610189600581565b604051908152602001610140565b61012c7f000000000000000000000000000000000000000000000000000000000000000081565b6101896101cc366004611606565b610d45565b61017f610d77565b6101896101e73660046115ed565b610d8b565b6000546001600160a01b031661012c565b61017f61020b366004611628565b610da5565b61018960025481565b61012c7f000000000000000000000000000000000000000000000000000000000000000081565b610189610e93565b61017f610256366004611654565b610f2b565b61026361116b565b604080519687526020870195909552938501929092526060840152608083015260a082015260c001610140565b61017f61029e36600461168d565b611213565b6000336001600160a01b037f000000000000000000000000000000000000000000000000000000000000000016146102f557604051635a1c6a5960e01b81523360048201526024015b60405180910390fd5b6001600160a01b038416301461032957604051635a1c6a5960e01b81526001600160a01b03851660048201526024016102ec565b7f00000000000000000000000000000000000000000000000000000000000000006001600160a01b0316876001600160a01b0316146103ab57604051633dd10b5360e11b815260206004820152601860248201527f496e76616c696420666c617368206c6f616e206173736574000000000000000060448201526064016102ec565b6000806103ba848601866116b1565b90925090506104136001600160a01b037f0000000000000000000000000000000000000000000000000000000000000000167f00000000000000000000000000000000000000000000000000000000000000008a611251565b60405163617ba03760e01b81526001600160a01b037f000000000000000000000000000000000000000000000000000000000000000081166004830152602482018a9052306044830152600060648301527f0000000000000000000000000000000000000000000000000000000000000000169063617ba03790608401600060405180830381600087803b1580156104aa57600080fd5b505af11580156104be573d6000803e3d6000fd5b5050604051635a3b74b960e01b81526001600160a01b037f000000000000000000000000000000000000000000000000000000000000000081166004830152600160248301527f0000000000000000000000000000000000000000000000000000000000000000169250635a3b74b99150604401600060405180830381600087803b15801561054c57600080fd5b505af1158015610560573d6000803e3d6000fd5b505050507f00000000000000000000000000000000000000000000000000000000000000006001600160a01b03167fd7243f6f8212d5188fd054141cf6ea89cfc0d91facb8c3afe2f88a1358480142896040516105bf91815260200190565b60405180910390a260405163a415bcad60e01b81526001600160a01b037f0000000000000000000000000000000000000000000000000000000000000000811660048301526024820184905260026044830152600060648301523060848301527f0000000000000000000000000000000000000000000000000000000000000000169063a415bcad9060a401600060405180830381600087803b15801561066557600080fd5b505af1158015610679573d6000803e3d6000fd5b505050507f00000000000000000000000000000000000000000000000000000000000000006001600160a01b03167f04a3d0037d2193eaf1c39cf1535e31c6f36abd16e4a7d7f2179858704c798a0e836040516106d891815260200190565b60405180910390a26040516370a0823160e01b81523060048201526000907f00000000000000000000000000000000000000000000000000000000000000006001600160a01b0316906370a0823190602401602060405180830381865afa158015610747573d6000803e3d6000fd5b505050506040513d601f19601f8201168201806040525081019061076b91906116e1565b90506107a16001600160a01b037f00000000000000000000000000000000000000000000000000000000000000001683856112e1565b600060646107b0856002611710565b6107ba9190611727565b6107c49085611749565b604051635767a74f60e01b81526001600160a01b037f0000000000000000000000000000000000000000000000000000000000000000811660048301526024820187905260448201839052919250600091851690635767a74f906064016020604051808303816000875af1158015610840573d6000803e3d6000fd5b505050506040513d601f19601f82011682018060405250810190610864919061175c565b9050806108d05760408051635c7af8cf60e11b81526001600160a01b03861660048201526024810191909152602260448201527f41726269747261676520657865637574696f6e2072657475726e65642066616c606482015261736560f01b608482015260a4016102ec565b6040516370a0823160e01b81523060048201526000907f00000000000000000000000000000000000000000000000000000000000000006001600160a01b0316906370a0823190602401602060405180830381865afa158015610937573d6000803e3d6000fd5b505050506040513d601f19601f8201168201806040525081019061095b91906116e1565b905085811015610988576040516370c5243560e01b815260048101879052602481018290526044016102ec565b600086610995868461177e565b61099f9190611749565b60408051898152602081018390529192506001600160a01b038816917f147eadb5569d263d5aba3ca005001b85a1651d8da1204f22327ecdac7459e2ea910160405180910390a2610a3c6001600160a01b037f0000000000000000000000000000000000000000000000000000000000000000167f0000000000000000000000000000000000000000000000000000000000000000600019611251565b60405163573ade8160e01b81526001600160a01b037f0000000000000000000000000000000000000000000000000000000000000000811660048301526000196024830152600260448301523060648301527f0000000000000000000000000000000000000000000000000000000000000000169063573ade81906084016020604051808303816000875af1158015610ad9573d6000803e3d6000fd5b505050506040513d601f19601f82011682018060405250810190610afd91906116e1565b50604051631a4ca37b60e21b81526001600160a01b037f000000000000000000000000000000000000000000000000000000000000000081166004830152602482018f90523060448301527f000000000000000000000000000000000000000000000000000000000000000016906369328dec906064016020604051808303816000875af1158015610b93573d6000803e3d6000fd5b505050506040513d601f19601f82011682018060405250810190610bb791906116e1565b506000610bc48d8f611749565b9050610c1a6001600160a01b037f0000000000000000000000000000000000000000000000000000000000000000167f000000000000000000000000000000000000000000000000000000000000000083611251565b6040516370a0823160e01b81523060048201526000907f00000000000000000000000000000000000000000000000000000000000000006001600160a01b0316906370a0823190602401602060405180830381865afa158015610c81573d6000803e3d6000fd5b505050506040513d601f19601f82011682018060405250810190610ca591906116e1565b604080518281524260208201529192507f78946e41c69d97934f5eba098f03000cb1b7fbc1b1b20e6535cd8cee981e9caf910160405180910390a1600199505050505050505050505b9695505050505050565b610d00611340565b600280549082905560408051828152602081018490527f369aaa64746f21909173e6b1331c9929562f5d22457e9dead997fec9dfa0b903910160405180910390a15050565b600081600003610d5757506000610d71565b81610d6484612710611710565b610d6e9190611727565b90505b92915050565b610d7f611340565b610d89600061136d565b565b6000612710610d9b600584611710565b610d719190611727565b610dad611340565b6001600160a01b038216610dec57604051630b0f5aa160e11b81526020600482015260056024820152643a37b5b2b760d91b60448201526064016102ec565b80600003610e265760405163589956a560e11b8152602060048201526006602482015265185b5bdd5b9d60d21b60448201526064016102ec565b610e4c610e3b6000546001600160a01b031690565b6001600160a01b03841690836112e1565b604080518281524260208201526001600160a01b038416917fbb757047c2b5f3974fe26b7c10f732e7bce710b0952a71082702781e62ae0595910160405180910390a25050565b604051632fe4a15f60e21b815230600482015260009081906001600160a01b037f0000000000000000000000000000000000000000000000000000000000000000169063bf92857c9060240160c060405180830381865afa158015610efc573d6000803e3d6000fd5b505050506040513d601f19601f82011682018060405250810190610f209190611791565b979650505050505050565b610f33611340565b610f3b6113bd565b82600003610f7e5760405163589956a560e11b815260206004820152600f60248201526e199b185cda131bd85b905b5bdd5b9d608a1b60448201526064016102ec565b81600003610fbe5760405163589956a560e11b815260206004820152600c60248201526b189bdc9c9bddd05b5bdd5b9d60a21b60448201526064016102ec565b6001600160a01b03811661100457604051630b0f5aa160e11b815260206004820152600c60248201526b1d185c99d95d15d85b1b195d60a21b60448201526064016102ec565b803b600081900361103357604051633a6c9d0d60e11b81526001600160a01b03831660048201526024016102ec565b6000838360405160200161105a9291909182526001600160a01b0316602082015260400190565b60408051808303601f1901815282825287835260208301879052428383015290519092506001600160a01b038516917f6cc5098251a62903c2547fcd0b9aa14895bf258f09a4a45cb73a4f2c247d22b7919081900360600190a26040516310ac2ddf60e21b81526001600160a01b037f000000000000000000000000000000000000000000000000000000000000000016906342b0b77c906111299030907f0000000000000000000000000000000000000000000000000000000000000000908a9087906000906004016117db565b600060405180830381600087803b15801561114357600080fd5b505af1158015611157573d6000803e3d6000fd5b50505050505061116660018055565b505050565b604051632fe4a15f60e21b8152306004820152600090819081908190819081906001600160a01b037f0000000000000000000000000000000000000000000000000000000000000000169063bf92857c9060240160c060405180830381865afa1580156111dc573d6000803e3d6000fd5b505050506040513d601f19601f820116820180604052508101906112009190611791565b949b939a50919850965094509092509050565b61121b611340565b6001600160a01b03811661124557604051631e4fbdf760e01b8152600060048201526024016102ec565b61124e8161136d565b50565b604051636eb1769f60e11b81523060048201526001600160a01b0383811660248301526000919085169063dd62ed3e90604401602060405180830381865afa1580156112a1573d6000803e3d6000fd5b505050506040513d601f19601f820116820180604052508101906112c591906116e1565b90506112db84846112d68585611749565b6113e7565b50505050565b6040516001600160a01b0383811660248301526044820183905261116691859182169063a9059cbb906064015b604051602081830303815290604052915060e01b6020820180516001600160e01b038381831617835250505050611473565b6000546001600160a01b03163314610d895760405163118cdaa760e01b81523360048201526024016102ec565b600080546001600160a01b038381166001600160a01b0319831681178455604051919092169283917f8be0079c531659141344cd1fd0a4f28419497f9722a3daafe3b4186f6b6457e09190a35050565b6002600154036113e057604051633ee5aeb560e01b815260040160405180910390fd5b6002600155565b604080516001600160a01b038416602482015260448082018490528251808303909101815260649091019091526020810180516001600160e01b031663095ea7b360e01b17905261143884826114e4565b6112db576040516001600160a01b0384811660248301526000604483015261146d91869182169063095ea7b39060640161130e565b6112db84825b600080602060008451602086016000885af180611496576040513d6000823e3d81fd5b50506000513d915081156114ae5780600114156114bb565b6001600160a01b0384163b155b156112db57604051635274afe760e01b81526001600160a01b03851660048201526024016102ec565b6000806000806020600086516020880160008a5af192503d91506000519050828015610cee5750811561151a5780600114610cee565b50505050506001600160a01b03163b151590565b6001600160a01b038116811461124e57600080fd5b60008060008060008060a0878903121561155c57600080fd5b86356115678161152e565b9550602087013594506040870135935060608701356115858161152e565b9250608087013567ffffffffffffffff808211156115a257600080fd5b818901915089601f8301126115b657600080fd5b8135818111156115c557600080fd5b8a60208285010111156115d757600080fd5b6020830194508093505050509295509295509295565b6000602082840312156115ff57600080fd5b5035919050565b6000806040838503121561161957600080fd5b50508035926020909101359150565b6000806040838503121561163b57600080fd5b82356116468161152e565b946020939093013593505050565b60008060006060848603121561166957600080fd5b833592506020840135915060408401356116828161152e565b809150509250925092565b60006020828403121561169f57600080fd5b81356116aa8161152e565b9392505050565b600080604083850312156116c457600080fd5b8235915060208301356116d68161152e565b809150509250929050565b6000602082840312156116f357600080fd5b5051919050565b634e487b7160e01b600052601160045260246000fd5b8082028115828204841417610d7157610d716116fa565b60008261174457634e487b7160e01b600052601260045260246000fd5b500490565b80820180821115610d7157610d716116fa565b60006020828403121561176e57600080fd5b815180151581146116aa57600080fd5b81810381811115610d7157610d716116fa565b60008060008060008060c087890312156117aa57600080fd5b865195506020870151945060408701519350606087015192506080870151915060a087015190509295509295509295565b600060018060a01b03808816835260208188168185015286604085015260a06060850152855191508160a085015260005b828110156118285786810182015185820160c00152810161180c565b5050600060c0828501015260c0601f19601f830116840101915050610cee608083018461ffff16905256fea264697066735822122072cce9d3a593b475fab727fbce88ff2a46d1b18adbc27993f27cefe13654610964736f6c63430008140033",
  "linkReferences": {},
  "deployedLinkReferences": {}
}